:10400000C00A0020714F00006D4F00006D4F00008E
:10401000C17900006D4F00006D4F00006D4F000032
:104020006D4F00006D4F00006D4F00006D4F0000A0
:104030006D4F0000A4BF0200854A00006D4F0000D4
:104040006D4F00006D4F00006D4F00006D5400007B
:104050006D4F00006D4F00006D4F00006D4F000070
:104060006D4F00006D4F0000DD810000D14C00005D
:10407000DD4C00006D4F00006D4F00006D4F0000E3
:104080006D4F00006D4F00006D4F00006D4F000040
:104090006D4F00006D4F00006D4F00006D4F000030
:1040A0006D4F00008D5900006D5900006D4F0000EC
:1040B0006D4F0000119B02006D4F0000D9A402005B
:1040C0007DA4020079A40200B59C0200D5A40200E0
:1040D00081A4020099A4020085A402009584020034
:1040E00019A502006D4F00006D4F00006D4F0000DC
:1040F0006D4F0000CD7000006D4F00006D4F00004F
:104100006D4F00006D4F00006D4F00006D4F0000BF
:104110006D4F00006D4F00006D4F00006D4F0000AF
:104120006D4F00006D4F00006D4F00006D4F00009F
:104130006D4F000010B5054C237833B9044B13B113
:10414000044800E000BF0123237010BDCC0E002006
:104150000000000080EC020008B5034B1BB10349CE
:10416000034800E000BF08BD00000000D00E0020A2
:1041700080EC0200A3F5803A704700BF174B002B7C
:1041800008BF134B9D46FFF7F5FF00218B460F46F6
:104190001348144A121A26F01CFC0E4B002B00D0B8
:1041A00098470D4B002B00D09847002000210400B9
:1041B0000D000D48002802D00C4800E000BF26F09A
:1041C0009DFB2000290000F051FC26F083FB00BF7E
:1041D000000008000000000000000000C00A0020ED
:1041E000CC0E0020942900200000000000000000F8
:1041F000054A136801331360044B1A78012A04BF7F
:1042000002221A70704700BF1C0F0020EA0E002027
:1042100008B5012200230221032002F0CDFABDE8F7
:10422000084003F03FBD00002DE9F7439F4C237881
:10423000023B072B40D8DFE813F00800420078006B
:10424000B600CA00CF003F002F01994D00F0ECFDF1
:1042500000F0EBFD9749286802F07FFF18F082FF1D
:10426000064628B39449286802F077FF93492868E6
:1042700002F073FF00F0D8FD00F0D7FD904B914A9B
:1042800000939149D023286802F067FF33468F4A94
:104290008F49286802F061FF304600F0EDFD8D493E
:1042A000286802F05AFF8449286802F056FFFEE7AA
:1042B00003232370884B187003B0BDE8F0830222FB
:1042C000854B86481B781146C05C18F013FF0546E5
:1042D00030B3774C7849206802F03FFF7749206877
:1042E00002F03BFF00F0A0FD00F09FFD744B754A0B
:1042F00000937549DB23206802F02FFF2B46734A99
:104300007349206802F029FF284600F0B5FD714985
:10431000206802F022FF6849206802F01EFFFEE7D5
:104320006F4B187004232370C6E7DFF8B491604E1A
:1043300099F80030684D012BDFF8A081694F26D134
:104340002A783B789A4222D200F06EFD00F06DFD93
:104350002B78654918F80320306802F0FEFE002330
:1043600089F800302B7801332B70032323702A78CF
:104370003B789A42A0D100232B7000F055FD00F04D
:1043800054FD5A49306802F0E8FE0523CBE700F0FF
:104390004BFD00F04AFD2A78554918F80230306884
:1043A00002F0DBFEE3E7534BD3F8A430C3F3800500
:1043B0005B0781D400F038FD00F037FD3C4B4E49DF
:1043C000186802F0CAFE444B1D700623ABE70022BA
:1043D000414B1A700723A6E70022484B3E4E1A7045
:1043E0003E4F3378FA5CFF2A53D03E4A12789A4205
:1043F0004FD903F039FDDFF818812D4DC8E90001D0
:1044000000F012FD00F011FDD8E900233C492868B6
:1044100002F0A3FE00F008FD00F007FD33783949F3
:10442000FA5C286802F099FE374B30781B88052229
:1044300000931121354B385C18F072FE064630B3FC
:104440001D49286802F089FE1C49286802F085FE93
:1044500000F0EAFC00F0E9FC194B1A4A00931A49F3
:104460004FF48A73286802F078FE3346174A1849D9
:10447000286802F072FE304600F0FEFC15492868FC
:1044800002F06BFE0C49286802F067FEFEE7082385
:1044900049E7013333700FE70F4A1249137809785F
:1044A000994292D90133137094E700BFEA0E0020BD
:1044B000CC0F002088BA0200F7BC0200B2BA02009A
:1044C0006ABD0200B7BA0200C0BA0200CCBA02004C
:1044D000CFBA0200E4BA0200E80E0020EB0E002082
:1044E000E90E0020140F0020F5BA020046BB0200BE
:1044F0001EBB020000C003507CBB0200180F00204E
:10450000A0BB0200B1BB0200160F0020C00A0020B1
:10451000280F00202DE9F0470368AF4A23F47F43BA
:1045200023F007039342044688B000F0B08110D80E
:10453000A2F5A022934200F02F8102F5803293422F
:1045400000F07A81A2F5A02293421DD008B0BDE808
:10455000F087A24A934200F0D08102F14072934268
:1045600000F0888102F17C4202F57F029342EDD196
:1045700000F05AFC00F059FC99499A4B186808B0B1
:10458000BDE8F04702F0E9BDFF22974B974D1A7046
:104590005A700023964F974E3A463146CDE9003384
:1045A000284618F0FFFD00F03FFC00F03EFC3B8881
:1045B0008C4C00932A8833888F49206802F0CDFD07
:1045C0000DF1170106A818F029FE054630B38B49F6
:1045D000206802F0C2FD8A49206802F0BEFD00F0AA
:1045E00023FC00F022FC874B874A009387494FF455
:1045F000B173206802F0B1FD2B46854A85492068D9
:1046000002F0ABFD284600F037FC8349206802F039
:10461000A4FD7A49206802F0A0FDFEE700F004FC4A
:1046200000F003FC9DF818309DF81D2003939DF8C1
:1046300019307A4902939DF81A3001939DF81B3086
:10464000009320689DF81C3002F087FD4FF6FF7341
:104650002021CDE900532A46A023084618F0F8FC93
:10466000054630B36549206802F077FD644920684B
:1046700002F073FD00F0D8FB00F0D7FB614B624AFB
:10468000009362494FF4B973206802F066FD2B462F
:104690005F4A6049206802F060FD284600F0ECFBAC
:1046A0005D49206802F059FD5449206802F055FD2B
:1046B000FEE700F0B9FB00F0B8FB5949206802F0B2
:1046C0004CFD0121084618F059FD054630B34B4911
:1046D000206802F042FD4A49206802F03EFD00F0E9
:1046E000A3FB00F0A2FB474B474A0093474940F227
:1046F0007713206802F031FD2B46454A4549206872
:1047000002F02BFD284600F0B7FB4349206802F079
:1047100024FD3A49206802F020FDFEE700F084FB0A
:1047200000F083FB3F49206802F017FD2B46CDE9DE
:1047300000554FF420313C4A3C4803F065FB0546E8
:1047400030B32E49206802F008FD2D49206802F0A0
:1047500004FD00F069FB00F068FB2A4B2A4A009335
:104760002A4940F27D13206802F0F7FC2B46284AC4
:104770002849206802F0F1FC284600F07DFB26491C
:10478000206802F0EAFC1D49206802F0E6FCFEE722
:104790000122274B1A70D9E6002590F81690DFF811
:1047A00094A000F11708A9457FF6D0AE08EB0503E9
:1047B0005B7818F80570023B012B09D8A81C02226F
:1047C0005146404426F0CEF80646002800F0C1804D
:1047D00001373D44EDB2E6E7A0000A00A000060163
:1047E00051BC0200CC0F0020EB0E0020300F002047
:1047F000340F0020320F0020D2BB0200F7BC0200B1
:10480000B2BA02005BBD0200B7BA0200C0BA020031
:10481000CCBA0200CFBA0200E4BA0200ECBB02003C
:1048200019BC02003EBC0200F1410000F80E00205D
:10483000EA0E00207DBD0200694C6A4D23780133E9
:10484000237000F0F1FA00F0F0FA22786649286847
:1048500002F083FC2378012B7FF678AE00F0E4FAB7
:1048600000F0E3FA22786149286808B0BDE8F04713
:1048700002F073BC4379022B7FF468AE01225C4BDB
:104880001A7000F0D1FA00F0D0FA5A4975E603F038
:10489000EBFA594E534DC6E9000100F0C5FA00F09D
:1048A000C4FAD6E900235549286802F056FC544A58
:1048B00030681378534E01331370534B1B68C01A82
:1048C00003F010FB00233060736000F0ADFA00F0DD
:1048D000ACFA4E49286802F040FC00F0A5FA00F05E
:1048E000A4FAD6E90023CDE90023494922792868B2
:1048F00002F033FC0922474B4CE73A4D00F094FAA2
:1049000000F093FA4449286802F027FC434BA2794F
:10491000197891421BD05978914202D10122FF218E
:1049200099542F4A1378013BDBB2012B13703FF6E9
:104930000DAE0121084618F021FC02287FF406AED6
:1049400000F072FA00F071FA3549286817E6002283
:10495000E5E7244D00F068FA00F067FA314928686D
:1049600002F0FBFB31461E4B1A782C4B134400938C
:10497000A27A637AD4F8050043EA022363F30F01B5
:104980003246012318F088FB044600283FF4DEADD0
:104990002549286802F0E1FB2449286802F0DDFB84
:1049A00000F042FA00F041FA214B224A00932249DA
:1049B00040F28F13286802F0D0FB23461F4A20499B
:1049C000286802F0CAFB204600F056FA1D49286804
:1049D00002F0C3FB1449286802F0BFFBFEE700BFEA
:1049E000140F0020CC0F00205FBC02008EBC020020
:1049F000E90E0020C6BC0200200F0020D5BC02003A
:104A0000180F0020F00E0020280F0020E4BC020048
:104A1000F9BC0200EA0E00201EBD0200EB0E0020D1
:104A200032BD02004CBD0200F7BC0200B2BA020067
:104A30005BBD0200B7BA0200C0BA0200CCBA0200E5
:104A4000CFBA0200E4BA020008B5074B01681A6841
:104A5000914208D1184600F09AFD012803D1BDE823
:104A6000084018F0A3BA08BD6CBF020008B503F0F7
:104A7000D2FBFFF7CDFB03F0DBFBFFF7D5FB03F029
:104A800001F8F8E707F09ABB03F0E8BB0120704794
:104A900000B5C3B007F0B4FA07F0DDFA48B1FFF78C
:104AA000F5FF30B101A818F0CCFA10B901A8FFF752
:104AB00031FD43B05DF804FB00F009BA08B50421EC
:104AC000002001F067FB0421062001F063FB0721B1
:104AD000084601F05FFB0721082001F05BFB07217E
:104AE0001C2001F057FB0721242001F053FB072174
:104AF000252001F04FFB002008BD000007B501A8EC
:104B000001F064FF9DF80530012B27D1244A936DF5
:104B1000DB0313D4536B23F4FF0323F4FE4343F46A
:104B2000BC1343F4A0635363136B23F4704343F447
:104B300040431363136B43F4E06313639DF8043045
:104B400063B94FF000531B68164B1B68164B1B686C
:104B5000164B1B68164B1B68164B1B68164AD2F87F
:104B6000803043F00303C2F8803002F0F3F900F024
:104B7000B9F902F09BF902F00BFA02F09FF902F08A
:104B8000D3F9FFF79BFF02F07FF900F0A9F900F0DD
:104B90003BFC00F00BFF03B05DF804EB02F03CBF00
:104BA00000C00050004000200080002000C0002015
:104BB00000000120004001200080005008B500F0F6
:104BC0008BFD00F07DFE00F0D5F800F0D9F8BDE8CF
:104BD000084000F0B9B908B500F077F903F062F8C1
:104BE00002F0D8F902F002FB05F042FD02F03AFEB5
:104BF00004F08EFB05F040FFBDE8084000F05AB815
:104C000008B502F009F902F017F902F02DF9BDE834
:104C10000840FFF739BF00F009B9704700F0CCB881
:104C2000FFF736BF7047000070B5114E92B03546A1
:104C30000BAC0FCD0FC495E80700032384E80700F1
:104C400003AD8DF8453006F11C030FCB07AC85E8AA
:104C50000F0006F12C030FCB84E80F00054B214613
:104C600000930BAA2B46044802F002FD12B070BD5F
:104C700030BF0200380F0020A00F0020831E012B40
:104C80000AD8012908D80422094B1B69C3F3401331
:104C90000521002001F090BD0239012907D8012823
:104CA00005D8034B00221B69C3F34013F0E770479C
:104CB00000C0035008B50449044802F0D1FEBDE825
:104CC0000840FFF7B1BF00BF580B0020780F00204D
:104CD000014B186802F08ABDA00F0020FFF7F8BF53
:104CE000014B1A6A18681047A00F00200120704776
:104CF0000120704710B507F0EFF9044600F08CF87A
:104D0000002808BF0024FFF7F1FF002814BF204649
:104D1000002010BD38B502F0E1FE044607F0EAF9C4
:104D200004281ED002284FF0000508BF0124FFF719
:104D3000D7FF042817D0022808BF012400F062F82A
:104D4000042812D0022808BF0124FFF7D1FF04284D
:104D50000DD0022808BF0124002D18BF00242046D2
:104D600038BD0125E3E70125E8E70125EDE700244B
:104D7000F5E70000014800F005BC00BF6CBF020071
:104D8000014800F027BD00BF84BF0200002209498E
:104D90000B684BB1834204D1436A4AB1536201208C
:104DA00070471A465B6AF4E70028F5D0184670474A
:104DB0000B60F4E7C40F002070B5104D2B681BB1D9
:104DC00000260F4B1C6804B970BD94F8283093B1CD
:104DD00001F04BFC2B6884F82860013B2B6001F04C
:104DE0004AFC94F8293013B92046FFF7CFFFD4E9E5
:104DF000073120469847646AE5E700BFC80F0020E6
:104E0000C40F0020034B1B68002B0CBF01200420A3
:104E1000704700BFC80F0020024B1868B0FA80F03E
:104E200040097047C80F002070477047012208B53D
:104E3000074B1A700022074B1A700422064B1A7097
:104E40001F22064B1A7002F04FF9054B186008BD7F
:104E50006B0B0020D00F00206C0B00206D0B00208E
:104E6000CC0F0020024B0349186802F076B900BF4E
:104E7000CC0F00209CBF020070B50C4C0C490646BC
:104E8000206802F06AF902F02FF90546206802F066
:104E90001FF93046FFF7E6FF284602F019F92068AF
:104EA0000449BDE8704002F058B900BFCC0F0020A3
:104EB0009EBF0200A0BF0200042208B511460123D4
:104EC000032001F079FC002008BDFFF7F5BF0422A4
:104ED00008B511460023032001F06EFC002008BD38
:104EE000FFF7EABD704770B50024064625465B21F2
:104EF000082000F04DFC102C04F1010300D170BD1E
:104F0000012B14D0022B14D0032B14D0042B14D05B
:104F1000052B04D16A1C2946D5B21C46E8E70D3C96
:104F2000012C0CD9102B0CD0B21FD15CF5E70C2151
:104F3000F3E7D121F1E78021EFE70021EDE75A21E6
:104F4000EBE75D21E9E7000007B5082000F014FC5D
:104F500002238DF80030044B68460193FFF7C3FF2E
:104F600003B05DF804FB00BF006A1810FEE7000004
:104F700008B500F02DF8124B12498B4212D30020D5
:104F8000114B12498B4218D3FFF7F8F8186850F804
:104F90002240586840F82240013298688242F5D396
:104FA0000C33EAE70022F8E71C6844F822000132DB
:104FB0005C68A242F8D30833E4E70022F8E700BFB8
:104FC00088EC020094EC020094EC020094EC0200E5
:104FD0006FF00100104B114A10B59A60D3F8882089
:104FE0000F4942F47002C3F8882001F500521066A0
:104FF00041F2FF7050660220C3F8D000BFF34F8F1C
:10500000BFF36F8F08244FF440330648C0F8804147
:10501000D36004600B6110BD00ED00E000400000B3
:105020000080004400E100E0014B1868704700BFB9
:10503000740B0020014B1860704700BF740B0020F8
:10504000084B1B6F03F00703022B04D0032B05D082
:10505000012B05D0FEE7044B18687047034BFBE7B4
:105060000348704700800050740B0020780B00202C
:10507000002D310108B5FFF7E3FF054B1B6FC3F3AC
:1050800001330133B0FBF3F0024B186008BD00BFE1
:1050900000800050700B00200048704700B4C4042A
:1050A000014B1868704700BF780B0020054B186053
:1050B000054B1B6F03F00703032B01D1FFF7DABF8A
:1050C000704700BF780B0020008000500020704720
:1050D00000487047002D3101174B9868C0F3044019
:1050E0000C2822D8DFE800F009212121212107170F
:1050F00019211B1D1F00114870479B6803F0407366
:10510000B3F1807F13D0B3F1007F12D00C4A002B93
:1051100008BF104670470B4870470B4870470B4854
:1051200070470B4870470B487047002070470A488B
:1051300070470A48704700BF0040015A405DC600F2
:1051400000093D000024F400C0EA210180BA8C016E
:105150000048E801005A620280841E0040420F00AD
:105160004FF4004070474FF47A707047014B186855
:10517000704700BF7C0B0020BFF34F8F0549064BE3
:10518000CA6802F4E0621343CB60BFF34F8F00BFE5
:10519000FDE700BF00ED00E00400FA0500239B6A74
:1051A000B3F5804F03D21968064A914203D0002319
:1051B000037083607047012202709A689B694260A5
:1051C000F7E700BF07B0CD5E30B50024A36A87B013
:1051D000B3F5804F054601910FD2012303A88DF846
:1051E0000C30CDE90444FFF7D9FF059B5B0504D5DE
:1051F000A36A28461B6C0199984707B030BD000090
:1052000073B5464B04461A781AB102221A7002B0DE
:1052100070BDCDE900220028F9D001261E7001F0F2
:1052200024FA3F4D3F4B186022F0F2FF2B785BB918
:1052300000F0BCFB40B93C4808233C4A3C490068AC
:105240001DF01CFE00B92E703A4B5A68A2603A4A13
:105250009A601A6E22605A6E62601B6E5C043DD5C5
:10526000364AD368D807FCD4354B1A68531C3AD059
:105270004FF480139340334A13660423314C236662
:105280004FF48063236600F03DF901300BD000F04D
:1052900039F940F2011398421FBF4FF4804323664F
:1052A0004FF4004323661023264C4FF080422366C0
:1052B0004FF400536846236601A922666366FFF730
:1052C00083FF009B2366019B63662B78002B9ED097
:1052D000164B1A6822665B68636698E71A4AD368B9
:1052E000D907FCD4C0E7194B1B78002BC5D1184B4C
:1052F0005A68144B12B94FF480121A66154A526854
:1053000012B94FF400121A66134B5B68002BB4D12C
:105310004FF480020B4B1A66AFE700BFEA0F002084
:10532000E80F0020EC0F0020880B0020E00F002089
:10533000007108000080004455CEAC00000004401D
:10534000800B00200090004400000450E90F002072
:105350000080055000C005500000065038B5214DB2
:1053600004462B78012B02D001232B7038BD002876
:10537000FCD000F0C7F8013009D000F0C3F840F2CB
:105380000113984203D0184AD368DB07FCD4226883
:10539000164B1A6662685A66A268D40744BF002298
:1053A0009A60134B1A68013213D1124A127882B9EB
:1053B00011494968C80748BF1A60104A5268D107A6
:1053C00044BF01221A600E4A5268D20744BF02222B
:1053D0001A6022F035FF0B4B186801F04CF90023DE
:1053E000C3E700BFEA0F0020000004400080004433
:1053F000800B0020E90F00200080055000C0055000
:1054000000000650EC0F002070B50024A36AB3F52D
:10541000804F1ED2104E337813F0FD0517D10F4880
:10542000FFF7EEFE08214FF480330D4A0D48C2F815
:105430008011C36011600C4A1361AB6ADB69984745
:1054400004460648FFF78AFF0CB901233370204653
:1054500070BD4FF48174FAE7E90F0020D40F0020EB
:1054600000E100E000A000440090004413B51F4B91
:105470001B7803B9FEE700231D4CCDE900336A46D3
:1054800008231C4920681DF0F9FCF0B91A4AD2F82B
:105490004031D2F840211F2B4FF0010310D9203AA0
:1054A0009340019A1343019308236A4611492068E7
:1054B0001DF09AFC4FF00053104A1A60FFF75CFE93
:1054C0009340009A13430093EEE70D4B9842F1D1BD
:1054D000094AD2F84031D2F840211F2B4FF0010386
:1054E00002D9203A9340DEE79340ECE7EA0F002030
:1054F000880B002000710800008000440B020FF0B0
:105500000BE000F01FB500239A6AB2F5804F04D378
:1055100040F2011005B05DF804FB126BB2F5804F4C
:10552000F6D2012201A8CDE902338DF80420FFF75D
:1055300035FE039BDB03EBD5029B1A0EE8D0012A54
:1055400003D1C3F307430A2BE2D900239B6A1B6BE9
:105550001B6C9847DEE700230360704703680B600D
:105560000160704705490A681318054883428CBFDB
:105570004FF0FF320B601046704700BF840B0020D5
:1055800000800120436803B1184722207047436917
:1055900003B11847FF20704710B40A681378022B34
:1055A00014D014203023147913FB040303F1A04317
:1055B00003F570331B685079C340DB4303F00103EC
:1055C000137008465DF8044BFFF73EBA5DF8044BD4
:1055D0007047000037B50468002301226179054651
:1055E000207901F0E9F814223023217913FB0123FB
:1055F00003F1A04303F570331B686279D340DB43AA
:1056000003F001032370A379022B0ED100F058F9A7
:105610002A460749607900F07DF901230246617945
:105620002079CDE9003301F083F8002003B030BDCC
:105630009955000003681878704702681378022BA8
:1056400027D014213023107913FB001303F1A0435A
:1056500003F5703351791B68CB40917903F0010356
:10566000012912D1508843EA40034FF6E07063F0FD
:105670003F039BB2834202D11170538070474FF6B3
:10568000DF718B42F9D10021F6E711B983F00103F4
:105690001370704703681A78022A03D100225A80D7
:1056A000FFF798BF704713B504682378022B10D01A
:1056B000A379022B0BD10021607900F019F90023A6
:1056C000627920791146CDE9003301F031F80223E7
:1056D000237002B010BD000008B50422012303218D
:1056E000002001F069F8002001F021F801221B4B95
:1056F0000521C3F844240C2000F04CFD0C2000F0E0
:10570000F7FB174B00F5D520D3F8F02000F2FC4052
:1057100042F00102C3F8F020D3F8FC2042F080727E
:10572000C3F8FC200F4AA3F55D431A600E4B02221A
:10573000B0FBF3F00D4B01381861C3F8F0204FF4C3
:105740008072C3F804234FF06043094A0020C3F875
:10575000B02F084AC3F8802E08BD00BF00D0035008
:1057600000ED00E0FF030040F8590D00000004E0E8
:1057700055CEACC5090001004FF060420123D2F8BC
:10578000001E03FA00F00843C2F8000E0020704724
:105790004FF06043D3F8802E30B5D20715D50124E1
:1057A0000B4D8440D5F8FC2042F08072C5F8FC20F7
:1057B000D3F8002E2243C3F8002E53F82020002AED
:1057C000F0D003F82010002030BD1120FCE700BF0E
:1057D00000ED00E0D0E90003184708B58378417870
:1057E000B3FA83F3042200785B0900F0E5FF0020A0
:1057F00008BD000010B5012243780178847830207C
:105800009A40054B00FB01331CB942F210015A507B
:1058100010BD41F21001FAE700C0035010B501229B
:1058200043780178847830209A40054B00FB01339F
:105830001CB941F210015A5010BD42F21001FAE7B2
:1058400000C003500122417803788A4030214B4345
:1058500043F2100103F1A04303F570335A5070472F
:10586000302310210246007813FB001303F1A043FC
:1058700003F5703350781B68C34003F00100937840
:105880000BB980F00100704770B5044601250B4E3E
:1058900004B970BD94FAA4F0B0FA80F005FA00F3F0
:1058A00006EB001224EA03045368002BF0D0117BAE
:1058B00011B191689847EBE79847E9E7F00F0020AE
:1058C00008B5192000F0DAFE28B14FF00072074B3E
:1058D000C3F880211A601A2000F0D0FE28B14FF0E2
:1058E0008062024BC3F880211A6008BD00E100E02D
:1058F00038B505460C4600F0B8FE0022044B03EB19
:1059000005135C601A73BDE8384000F0B4BE00BFF8
:10591000F00F0020F8B505460F46164600F0A5FE2C
:10592000104B05F0FC02D3F824140023EC1804F00B
:105930000304144321FA04FC1CF0010F07D00133C7
:10594000042BF3D1FF2400F096FE2046F8BDFF2C77
:10595000F9D00122044B03EB0413C3E901761A7357
:10596000F1E700BF00C00350F00F0020064BD3F852
:105970002404D3F8202403F50053104000F05530E0
:10598000C3F82004FFF780BF00C00350064BD3F8D4
:105990002404D3F8202403F50053104000F0AA306B
:1059A000C3F82004FFF770BF00C00350024B196812
:1059B000024B18681DF042B98C0B0020880B0020A8
:1059C0007047000037B5920004460D46019226F05C
:1059D00053F8431C0BD060B929462046019A24F0A5
:1059E000C1FF0028044808BF002003B030BD0348B1
:1059F000FBE70348F9E700BF10E000F021E000F00A
:105A000024E000F013B5044601A800F0DFFF9DF884
:105A10000630012223804FF4807300206380054B01
:105A20009B680A3303F01F0302FA03F3636002B0BA
:105A300010BD00BF0080E00F00F00CBF08B500F003
:105A4000FDFE002008BD10B5044644EA010313F032
:105A50000303084609D1934201D1002010BD54F838
:105A6000231040F823100133F5E72146920024F07B
:105A700089FFF2E710B5044625F0F6FF431C15D068
:105A8000B0B90C4B20469B680A3303F01F02012378
:105A9000934023F003032344984201D1002010BD1A
:105AA00050F8042B0132F7D00348F8E70348F6E733
:105AB0000348F4E70080E00F0EE000F021E000F082
:105AC00024E000F008B500F0C9FD014B186008BDE6
:105AD00080180020014B186800F0C4BD8018002019
:105AE0000A460139014401F019BF000041F6713343
:105AF00010B5104C104AA0428CBF4FF48014002403
:105B0000D169D363936801F4803123F440132343B4
:105B100093600A4B98420A4BD3F818228CBF42F08C
:105B2000020222F00202C3F8182211B10022024B35
:105B3000DA6310BD005A62020000035080F0FA02DE
:105B400000C007502E4B98424AD022D82D4B984285
:105B500040D014D82C4B984239D00AD82B4B9842BD
:105B600032D02B4B98422FD02A4B98422CD0002079
:105B70007047294B9842FAD1284B186F7047284B31
:105B800098422AD0274B9842F1D1244BD3F8800079
:105B90007047254B98422BD009D8244B984223D0EC
:105BA000234B9842E3D11D4BD3F88C007047214B17
:105BB000984221D003F5740303F510539842D6D1CF
:105BC000164BD3F898007047144B986D7047134BE1
:105BD000586E7047114B586F7047104B986F704755
:105BE0000E4BD3F8840070470C4BD3F888007047F5
:105BF0000A4BD3F890007047084BD3F894007047D5
:105C00000048E8010024F400C0CF6A0080841E0030
:105C100000093D0040420F00405DC6000080E00FDB
:105C2000C0EA210180BA8C01007E560380D5430270
:105C3000006CDC020090D00308B5FFF72DFABDE838
:105C400008400021FFF752BF38B5124B0546D3F884
:105C500020310C4603F00703013B032B17D8DFE884
:105C600003F0020A0E12FFF7DFF9042305B12860E2
:105C700004B1236038BDFFF713FA0323F6E7FFF7FB
:105C80002BFA0523F2E7FFF723FA0223EEE70023BE
:105C90001846EBE70080005037B50C460021124A49
:105CA0000191D2F88021054602F00302022A0ED0AB
:105CB000032A11D0012A14D101A8FFF7C5FF0D2333
:105CC0000DB1019A2A6004B1236003B030BDFFF723
:105CD00003FA05230190F3E7FFF7FAF90223019095
:105CE000EEE70B46ECE700BF0080005038B5104BE4
:105CF0000546D3F840310C4603F00303022B0BD0CA
:105D0000032B0DD0012B0FD1FFF72AFA082305B181
:105D1000286004B1236038BDFFF728FA0723F6E7AF
:105D2000FFF721FA0923F2E700231846EFE700BF47
:105D30000080005038B5104B0546D3F860310C4652
:105D400003F00303022B0BD0032B0DD0012B0FD13B
:105D5000FFF706FA082305B1286004B1236038BDB7
:105D6000FFF704FA0723F6E7FFF7FDF90923F2E747
:105D700000231846EFE700BF0080005038B5134BF2
:105D80000546D3F800320C4603F00703013B032B12
:105D900018D8DFE803F0020A0E12FFF7E1F9082332
:105DA00005B1286004B1236038BDFFF7DFF9072390
:105DB000F6E7FFF7D8F90923F2E7FFF75BF90C23C1
:105DC000800AEDE700231846EAE700BF0080005094
:105DD00038B5134B0546D3F808320C4603F00703D9
:105DE000013B032B18D8DFE803F0020A0E12FFF77D
:105DF000B7F9082305B1286004B1236038BDFFF767
:105E0000B5F90723F6E7FFF7AEF90923F2E7FFF745
:105E100031F90C23800AEDE700231846EAE700BFBA
:105E20000080005038B5104B0546D3F840320C4680
:105E300003F00303022B0BD0032B0DD0012B0FD14A
:105E4000FFF78EF9082305B1286004B1236038BD3F
:105E5000FFF78CF90723F6E7FFF785F90923F2E747
:105E600000231846EFE700BF0080005038B5104B04
:105E70000546D3F800310C4603F00303022B0BD088
:105E8000032B0DD0012B0FD1FFF70AF9032305B126
:105E9000286004B1236038BDFFF768F90723F6E7EF
:105EA000FFF714F90623F2E701230020EFE700BF14
:105EB00000800050032814D005D8012805D00228FE
:105EC00009D0002005E00F28FBD1084B186FC0F364
:105ED000013001307047054BD3F89000C0F30460E7
:105EE000F7E7024B186FC0F38020F2E70080005004
:105EF0001FB500230193252817D8DFE800F0131AF7
:105F00001D262B353A50555A5F646977161A3F168D
:105F100016551A262B26351A5026773A3A3A3A263B
:105F200026265A5FFFF78CF80190019805B05DF8BE
:105F300004FBFFF79FF8F7E7FFF782F8024602201D
:105F4000FFF7B8FFB2FBF0F0EEE7FFF793F8024679
:105F50000320F5E7FFF78EF802460320FFF7AAFFBC
:105F6000B2FBF0F04008DFE7002101A8FFF794FE44
:105F7000DBE7002101A8FFF767FED6E702934FF0A9
:105F8000E0231B695B0705D5FFF774F80290029BBD
:105F90000193CAE703A902A8FFF7A8FEF7E70021CB
:105FA00001A8FFF7A3FEC0E7002101A8FFF7C2FE8A
:105FB000BBE7002101A8FFF7E1FEB6E7002101A839
:105FC000FFF706FFB1E7002101A8FFF74FFFACE79D
:105FD000094BD3F8803003F00303022BA9D0032B25
:105FE00001D00020A0E7FFF777F89DE7002101A886
:105FF000FFF718FF99E700BF0080005008B50120A7
:10600000FFF776FFBDE80840034988428CBF0221B4
:106010000121032000F002B880F0FA02032810B535
:106020000C4627D004D8012804D0022817D010BD70
:106030000F28FCD1FFF700FE00F028F8124B013CBE
:10604000196F21F4405141EA04341C67FFF712F83C
:106050000021FFF74BFDBDE81040FFF7CFBF0A4B13
:10606000013CD3F8901021F0F85141EA0464C3F8E0
:106070009040DCE7044B013C196F21F4806141EA58
:1060800084241C67D3E700BF008000500221032056
:10609000FFF7C4BF1FB500230193252821D8DFE8EF
:1060A00000F013202020202A2F454A4F54595E71BA
:1060B00020203420204A202020202A204520712F13
:1060C0002F2F2F2020204F54314B1B6F03F007033D
:1060D000013B032B05D8DFE803F00C02080A042378
:1060E0000193019805B05DF804FB0323F8E706234C
:1060F000F6E70223F4E7002001A9FFF7CDFDF0E762
:10610000002001A9FFF7A0FDEBE702934FF0E02389
:106110001B695B0705D5FEF7ADFF0B230393039BBC
:10612000DEE703A902A8FFF7E1FDF8E7002001A9D7
:10613000FFF7DCFDD5E7002001A9FFF7FBFDD0E765
:10614000002001A9FFF71AFECBE7002001A9FFF705
:106150003FFEC6E7002001A9FFF788FEC1E70C4B10
:10616000D3F8803003F00303022B03D0032B05D0B8
:106170000023B5E7FEF77EFF0B23B1E7FEF7ACFF88
:106180000523ADE7002001A9FFF74CFEA9E700BFFA
:106190000080005070B50C46252848D8DFE810F084
:1061A000260047004700470047005B006B009B004C
:1061B000AB00BB00CB00DB00EB00FC00470047005E
:1061C0007B0047004700AB004700470047004700FF
:1061D0005B0047009B004700FC006B006B006B00FE
:1061E0006B00470047004700BB00CB008B1E042B11
:1061F0002ED8DFE803F02A1D032D270000250226F4
:10620000FFF71AFDFFF742FF6B4A136F23F00703F6
:1062100033431367FEF72EFF0021FFF767FCFFF7FC
:10622000EDFE25B9032C02D10122644B9A6270BDA8
:106230000122634B0E469D6A03F58053C5F340056A
:106240009A62DDE700250426DAE700250126D7E774
:1062500000252E46D4E78C1E0B2C8CBF0021594BF9
:10626000554A98BF195DD2F8803123F003030B43E0
:10627000C2F88031DBE78C1E032C8CBF0021524B0F
:106280004D4A98BF195DD2F8203123F007030B4324
:10629000C2F82031CBE70B2912D00ED8CC1F022C2C
:1062A000C5D84A4A536A43F0010353624FF0E022D3
:1062B000136923F004031361B9E70E29B7D1F0E79E
:1062C000424A536A23F0010353624FF0E0221369FC
:1062D00043F00403EFE7CC1F022C8CBF00213C4BA2
:1062E000354A98BF195DD2F8403123F003030B43C0
:1062F000C2F840319BE7CC1F022C8CBF0021354BEC
:106300002D4A98BF195DD2F8603123F003030B4387
:10631000C2F860318BE7CC1F052C8CBF00212E4BBF
:10632000254A98BF195DD2F8003223F007030B43CA
:10633000C2F800327BE7CC1F052C8CBF0021274B15
:106340001D4A98BF195DD2F8083223F007030B43AA
:10635000C2F808326BE7CC1E042C8CBF0021204B06
:10636000154A98BF195DD2F8003123F003030B439F
:10637000C2F800315BE705290CD00B2914BF0021BE
:1063800002210D4AD2F8803023F003030B43C2F8F8
:1063900080304CE70321F4E7CC1F022C8CBF002196
:1063A000104B054A98BF195DD2F8403223F0030321
:1063B0000B43C2F840323AE70080005000E0005042
:1063C00000C0005018C0020024C0020000C00750E6
:1063D00028C0020028C002002BC002002BC002000F
:1063E00031C0020028C0020008B5FFF753FE07289D
:1063F0000ABF024B4FF6FF70188808BDAC0B002097
:1064000038B50546FFF79EFB214B04465A68012A22
:1064100004D120494A609A699207FCD10020FFF715
:1064200039FE042803D1FFF707FCFFF72FFE1A4AB5
:1064300024F04073954221D0184A954221D0184A41
:10644000D16811F0060FFBD190689360916803F456
:10645000F81301F4F8118B4216D12846FEF7EAFD35
:106460000020FFF717FE042810D1FEF703FE0021DD
:10647000FFF73CFBBDE83840FFF7C0BD43F00073B9
:10648000DDE743F08073DAE79060E9E738BD00BFED
:1064900000C0015000E0015040420F0080841E0007
:1064A0000000015070B504460020FFF7F3FD0328FB
:1064B0007CD045F60E030221414AC2F88030414BA0
:1064C0009962012103F580539962936DD903FCD43D
:1064D000D4E900131B0543EA0163E17B94F82250E1
:1064E0000B43217B94F8236043EA0143617B43EA39
:1064F0000133A17B43EA811313619169D4E9040359
:106500001B0643EA806301F000410B43A17EE07E5D
:106510000B43217E43EA0143617E43EA01239361F9
:10652000136AE26923F00D03002A0CBF0021082141
:1065300043EA020343EA8003214A43EA0103136268
:1065400094F820304FEA431331D1906A94F8211027
:1065500020F0330043EA0113034343F00103936245
:10656000194B916D33EA0101FBD10221154B996260
:10657000936D5B00FCD41069A36820F4700040EABE
:10658000035010614FF000420E4B9A611DB9022278
:1065900003F580539A6216B901220C4B9A6294F863
:1065A00024301BB1064B0A4AC3F8802070BD916AA3
:1065B00021F0330131430B4343EA45039362EEE795
:1065C00000C0005000D000500300014000E0005027
:1065D000F1A7FFFF014B93F9000070473419002029
:1065E000F0B5D0E901434FF4D1560227164A41785D
:1065F00005785662154E4F2977604FF0010728BF86
:106600004F2106F5805677601669F603FCD441EAFF
:10661000052151611B01417B43EA04230B43017BAC
:1066200043EA41039360C37B817B1B0143EA41132F
:10663000417C0B43017C43EA41035360837C13B1EB
:106640006FF4D1535362F0BD0000025000100250AD
:10665000014B1880704700BFAC0B0020EFF3108097
:1066600072B6704700B962B67047EFF311803023FD
:1066700083F31188704780F311887047054B4209F6
:1066800053F8223000F01F0023FA00F0C04300F05E
:106690000100704700E100E07047704770477047A5
:1066A0000A4A10B51369044643F004031361FFF767
:1066B000F3FFFFF7F2FF30BFFFF7F1FFFFF7EEFF49
:1066C0001CB9BDE81040FEF7D5BC10BD00ED00E0E0
:1066D000084A10B51369044643F004031361FFF739
:1066E000DBFF30BFFFF7DAFF1CB9BDE81040FEF753
:1066F000C1BC10BD00ED00E0034A0179D36E23F068
:1067000030030B43D36670470040005070B5054618
:1067100014460E46FFF7A2FF296881EA040202EA46
:1067200006044C402C60BDE87040FFF79BBF7047EB
:10673000072AF7B50D4614461F460FD803219600C9
:10674000B14000FA06F215480191FFF7DFFF05F0AE
:10675000030201991248B240FFF7D8FF114B1249CA
:106760009DF82000002F08BF1946012303FA04F406
:106770000C600E4B0E49002808BF0B461C600D4BE9
:106780009DF82400C3F820441031A3F6DC33002820
:1067900008BF0B461C6003B0F0BD00BF00C403502F
:1067A00008C4035010E4035010D4035014D4035011
:1067B00014E4035000E00350F8B504460D461F46AC
:1067C00016464AB101238B403021194A01FB0022B1
:1067D000FFB141F21001535004EB4403072D4FF079
:1067E0000F014FEA031317D8A80006FA00F2814000
:1067F00010481844FFF78AFF56B9012130230C488E
:1068000001FA05F503FB040077B141F21003C5500E
:10681000F8BD42F21001DEE7A5F10800800006FA9B
:1068200000F281400448E4E742F21003EFE700BFC2
:1068300000C0035004C003500CC0035041F6713235
:10684000034BDA63012203F50053DA60704700BF9F
:106850000000035041F671320121044BDA6303F565
:106860000052D1600022DA63704700BF000003507D
:106870004FF0B0435A6812B19A6A002AFAD17047B1
:10688000CB784A7810B55B010C7843EA82030A7929
:10689000234343EA02130C22424302F1B042136342
:1068A000012C02BF8A78024B43F8202010BD00BFA4
:1068B000D080035008B54FF0B0435A6802B960B1B8
:1068C0005B680BB1FFF7D4FF4FF0B04130B101204E
:1068D000074B5860FFF7CCFFC86008BDFFF7C8FF43
:1068E0000223CB60FFF7C4FF0122024B5A60F4E79A
:1068F00000100058002000584FF0B0435B6870B59E
:106900000BB1FFF7B5FF0121104B45785960837833
:106910000679002BC37814BF02240024002B14BF77
:10692000042200224379DB0043EA06132B4323436E
:1069300013434FF0B0429360054B59600378002B2E
:1069400014BF0B460223D36070BD00BF0020005867
:1069500000100058436813B9416070475B685A687B
:10696000012AFBD159607047836813B98160704771
:106970005B685A68012AFBD159607047C369032BD1
:106980009FBF00EB83020133D160C3617047C369CD
:10699000042B15D84FF09842116CC902FCD5043372
:1069A0009B0013650168103B116041680C30116059
:1069B00050F8041C034411604FF09842984200D1F3
:1069C000704750F8041B1160F8E70000054B5B6945
:1069D000C3F38512827003F03F021B0B42700370F9
:1069E000704700BF00C0075040F6B732064B5B68E7
:1069F0009BB293429FBF4FF47A72B3FBF2F3034A08
:106A0000D05C88BF002070470080E00F36C00200D5
:106A10000D4B984208D1A3F50033C3F88411C36D20
:106A200043F08003C3657047084B984204D1A3F537
:106A30001033C3F89411F2E7054B984204BFA3F555
:106A40002033C3F8A411EAE70080055000C00550C8
:106A50000000065070B5054616461C4619B90320BD
:106A6000FFF746FA0146402C1BD003D8DCB1202C9E
:106A70001BD070BD602CFCD1042303FB06F256082A
:106A800006EB4113B3FBF2F3094A203B02EAC303CE
:106A9000AA6822F06002AA60AA681443AC60EB61A5
:106AA000E7E70623E9E71023E7E70823E5E700BF68
:106AB000F8FF7F00012200F580535A60CB439340DA
:106AC00003F00A034361416111B900F500504260CF
:106AD00070470000012200F5805310B55A6040F65F
:106AE000AA6341F205024361002312498360C36532
:106AF000C26000F500520361C361C36491640E4932
:106B00008365884206D00D4CA04203D004F5804432
:106B1000A0420BD18842036506D0084B984203D0AF
:106B200003F58043984201D100234365012353605C
:106B300010BD00BFFFFF01000080055000C00550E0
:106B400070B50D46FFF7C6FF012300F58056736050
:106B5000AB7C04461BB1836843F080438360EB7CCD
:106B60001BB12046297DFFF753FF2A8A6B7B204605
:106B70001343EA891343E3602B7BD5E90112FFF746
:106B800069FF6B7D1BB1A36843F48033A360AB7DC9
:106B90001BB1A36843F40043A360EB7D2A7E1B076F
:106BA000120502F4E00203F0E0431343A3656A7E9A
:106BB000931E012B214B20D89C421AD003F5804311
:106BC0009C4218D003F580439C420CBF02234FF037
:106BD000FF3341F2AC5102205B0103F1A04303F506
:106BE00070335850032A23D10423F3652B78636153
:106BF00070BD0023EDE70123EBE79C4214D0104B5E
:106C00009C4213D003F580439C420CBF02234FF0FB
:106C1000FF3342F2AC5102205B0103F1A04303F5C4
:106C200070335850012ADEE70023F2E70123F0E732
:106C3000042204F50053DA65D8E700BF0080055050
:106C400000C0055083691B06FCD5406AC0B270477E
:106C500083695B06FCD5C1637047000038B5044604
:106C6000054D1DF052F90FCC0FC594E80F0085E8D3
:106C70000F00002038BD00BF3819002047F6FF7311
:106C80009A42F0B563D0032963D8334BCF0003EBAE
:106C9000C10013F831108478012913D10025C3787D
:106CA0001B1B9D4202D3E018C0B2F0BD591B4668C1
:106CB000A3EB510136F911609642D4BF0D4601F1A4
:106CC000FF33EEE740680028EFD0B0F900109142A2
:106CD00004DBB0F902109142B8BF114682883B44F0
:106CE000FF2A19BFC8222826B0F90620B0F908608B
:106CF000A2EB01020CBF0125002592FBF6F25F78A2
:106D00002A447B1E934228BF13464FF47A7E00EB41
:106D1000C305AE68EA88AC4611FB02621E4622EA51
:106D2000E272013302F5FA729F42B2FBFEF204D91D
:106D3000BCF80CC008359445EBD200EBC600808847
:106D4000904228BF1046A04238BF2046ACE7FF2043
:106D5000ABE70020A9E700BF381900200329F0B5F0
:106D600053D82B4800EBC10410F831106368012997
:106D70000FD1E078A478904294BFC4EB0001C4EB3B
:106D80000201001BCAB28242C8BF002233F91200BE
:106D9000F0BD002B39D0A178914202D3B3F90200A3
:106DA000F6E7E178B3F900009142F1D99988647867
:106DB000A1F1FF06013C714203F10405E4B2714107
:106DC00003F10C071FFA82FCCEB2B44216D805EBD1
:106DD000C1014FF47A756A43B1F902404968521A09
:106DE00004EBD47102EB610292FBF4F29042CFDB30
:106DF000B3F902009042CBDC10B2C9E737F831E0BA
:106E00004E1CE645E3D33146DEE70248C0E700BF4B
:106E1000381900200080FFFF08B50448FFF71EFF67
:106E2000BDE8084001201DF08BB800BF3CC0020047
:106E300000487047AE0B00207FB50222084B09497D
:106E4000CDE901234FF00073CDE90313052301A918
:106E50004FF0FF3005931DF0D7F807B05DF804FB45
:106E6000006A180000020400002307B5CDE90033D2
:106E7000012369464FF0FF308DF802301DF009F80C
:106E800003B05DF804FB000013B50024064A684611
:106E9000536F43F00103536700948DF80440FFF7EC
:106EA0002BFC204602B010BD0040005008B502483F
:106EB000FFF7A6FA002008BD00B4C40430B58BB0BB
:106EC0006C46154D0FCD0FC40FCD0FC495E80300D0
:106ED00084E80300114BD3F84C21120314D4D3F8E7
:106EE0005041E4B28DF81940FFF774FB204480F361
:106EF00008008DF818000A48FEF7D8F86846FFF732
:106F0000D1FA00200BB030BD064B1C884FF6FF7342
:106F10009C4208BF8524E5E728C102000080E00FFD
:106F200000F049020001E00F30B5094D87B001AC17
:106F30000FCD0FC42B6801A8236025238DF80530E1
:106F4000FFF74EFB6420FFF783FB002007B030BD46
:106F500050C102006FF00402502110B50A480B4CDA
:106F600012F0800FD3B21BBF03F00F03043BA31832
:106F70001B1802F101020CBF83F8001319763D2A99
:106F8000EED1002010BD00BF00ED00E000E100E008
:106F900000F064B838B500F085FE0446E0B900F0B2
:106FA0007DFF4FF4167343430C4803F5742303F23B
:106FB0003F23B3FBF0F30A4A0A4913600A220D6823
:106FC0000948013A12F0FF0240F8043BF9D103EB03
:106FD000C3022B4413440B60204638BD40420F00CF
:106FE000941900206019002064190020F8B5144C91
:106FF000237823B300F02BFF124B134D1B68134E65
:10700000C01A012838BF0120114B124F18602B788D
:1070100056F8232046F82300111A3A680E48521AEF
:107020000A213A600932B2FBF1F20133DBB20260AD
:10703000B3FBF1F201FB12332B7000232370F8BD78
:107040005C190020901900208C1900206419002080
:1070500058190020601900209419002020230949A4
:10706000094A81F82D33094B03F500504267026746
:107070004FF40050C1F88401486003F580535A670B
:10708000704700BF00E100E0010000A000C0005018
:107090000C4B10B51C6FE20707D5012203F5005316
:1070A0001A67FFF7A3FF00F01BFD14F000521CBF8E
:1070B000054B1A67002CBEBF4FF00042024B1A6707
:1070C00010BD00BF00C0005000E00050FFF7E0BF5F
:1070D00010B50446FFF7C2FA024B1C60FFF7C2FA74
:1070E000002010BD9819002010B5FFF7B7FA034B28
:1070F0001C68FFF7B7FA204610BD00BF98190020A2
:1071000007B530B9CDE90012FFF7EEFFDDE9001257
:1071100030B1436823B1006803B05DF804EB184751
:10712000232003B05DF804FB30B51C4685B058B988
:10713000CDE90012FFF7D8FFDDE9001204B903AC76
:1071400020B9232005B030BD03B903AC8568002DFC
:10715000F7D023460068A847F4E70EB477B507AB2D
:1071600053F8046B05460193B0B9FFF7BDFF044621
:1071700005463046019923F0BDFDAC42064602D0DB
:107180002046FFF7A5FF002ED4BF3720002003B014
:10719000BDE8704003B07047FFF7A6FF8542044684
:1071A000E7D02846FFF794FFE3E700207047FEE7AB
:1071B0004FF4005300204B607047012070470020BF
:1071C000704707B5002001AB0190FFF7ADFF0198B4
:1071D000002808BF4FF0FF3003B05DF804FB10B586
:1071E00014460020FFF78CFF204610BD034B0222FF
:1071F000186800238068194623F0B8BCC40C00202E
:1072000090F82A3001223BB190F82E30022B03D1A6
:1072100080F82E20184670471346FBE780F82410AC
:10722000704790F82400704790F82B3021B133B9A3
:10723000012380F82B3070470BB180F82B1070477A
:1072400090F82B0070470000002808DB012342095A
:1072500000F01F0003FA00F0014B43F822007047D2
:1072600000E100E0002809DB0122430900F01F00D3
:1072700002FA00F0024A603342F82300704700BF70
:1072800000E100E02DE9F041044616460D4690F875
:107290002470FFF7EAF994F82A2003463AB1FFF781
:1072A000EAF9FFF7E2F90022034684F82A2018469B
:1072B000FFF7E1F92E441FBBAE4205D120466368BB
:1072C0000121BDE8F041184794F82630002BF3D097
:1072D0002046236815F8011B98470028ECD0BDE82C
:1072E000F08194F826305BB12B780A2B03D10D2165
:1072F0002046236898472046236815F8011B9847C5
:10730000AE42EED1DAE72DE9F7434FF0000904462B
:1073100090461E46C3F800904F1E3368434505D281
:10732000FFF7A3F9A269C2B9FFF7A5F994F82730CE
:107330005BB91123012220460DF107018DF80730BA
:10734000FFF7A0FF012384F827303368002B0CBF20
:107350001B20002003B0BDE8F083E16922698A5C4C
:1073600007F8012F2569226A0135954208BF4D466D
:10737000A2692561013AA261FFF77DF9A368204661
:107380009847336801333360C7E708B5FFF77AFFE2
:10739000002008BD70B504460568FFF7A5FE8442CD
:1073A00002D10020FFF794FE95F92800FFF75AFF5D
:1073B00095F92830002B0DDB01215A0903F01F033A
:1073C00001FA03F31449203241F82230BFF34F8F02
:1073D000BFF36F8F95F92900FFF744FF95F9293026
:1073E000002B0DDB01215A0903F01F0301FA03F3FF
:1073F0000949203241F82230BFF34F8FBFF36F8F1E
:1074000000232846C4E90033C4E90433A360EB68D1
:10741000BDE87040184700BF00E100E0F8B51F4626
:10742000536806460C461546002B5BD09368002B2C
:107430005AD030220021204623F0CBFA6B682B4A29
:10744000E361AB68204623622B7B84F82430AB7B5E
:10745000276084F8253040F20113E384069B00275F
:107460006360079BA360089BE3602B7884F8283057
:107470006B7884F829301E4B346073601D4BB36009
:107480001D4B33611D4B73611D4BF3601D4B33620C
:10749000012384F82E30B2611B4AF2619DF8282046
:1074A00084F82D209DF8242084F82A3084F82C209C
:1074B000697B84F82B70FFF7B7FE95F90100FFF7A1
:1074C000D1FE95F90100FFF7BFFE95F90000FFF727
:1074D000C9FE95F90000FFF7B7FE3046FFF7F8FD4B
:1074E0003846F8BD2220FCE72120FAE72972000087
:1074F0008B730000077300001D72000023720000F0
:1075000095730000017200004172000010B504463E
:10751000FFF7ABF8A269236A9A4203D2FFF7ABF8F0
:10752000012010BDFFF7A7F80020FAE737B50446A1
:107530000D4600E000BFFFF798F894F825300246AA
:107540006BB1132D07D1002384F8263003B0BDE8BA
:107550003040FFF790B8112D01D10123F4E76369A2
:10756000E1691046CD54A16963690131A161216AC5
:1075700001338B42636104BF00236361FFF77BF833
:10758000042384F82E3094F825307BB1A269236A55
:107590009A420BD11323012220460DF107018DF8E9
:1075A0000730FFF76FFE002384F8273003B030BDAB
:1075B00090F82A3010B503F0FF0104463BB9436848
:1075C0009847012384F82A30022384F82E3010BD16
:1075D000026BD36C43F00403D364704710B50446C8
:1075E000026B93695906FCD5002394F836101A46AD
:1075F00094F83500FFF7E0F8002394F838101A46A5
:1076000094F83700FFF7D8F894F83D30DA0707D53B
:10761000002394F83A101A4694F83900FFF7CCF892
:1076200094F83D309B0707D5002394F83C101A4688
:1076300094F83B00FFF7C0F8206B0021FFF73AFAFF
:10764000002010BD08B5006BFFF702FB002008BD4D
:10765000036BDA6C19B142F00102DA64704722F070
:107660000102DA64012203F500539A6470470000B6
:107670002DE9F0414FF001081C46574B86B00293AC
:10768000564B0C9D0193564B174600930A46CDE985
:1076900003882946534BFFF7C1FE0646002875D1E3
:1076A000236804222B63237985F83430A17985F887
:1076B0003610607985F83500237A85F83830E3791B
:1076C00085F83730A37A85F83A30637A85F839300F
:1076D000237B85F83C30E37A85F83B304346FFF75F
:1076E0006BF843460222217AE079FFF765F83E7095
:1076F00039462068FFF724FA1421627B3A4B03EBEA
:107700004210C0F8AC1594F806C061792E3203EB34
:10771000421341EA0C415960227AE37943EA024379
:10772000C0F8BC3585F83D607B7E032B52D8DFE87E
:1077300003F01F02314C0123002785F83D30002360
:107740000222A17A607AFFF737F8A17A627A637B26
:1077500042EA014241F2B4515B0103F1A04303F557
:1077600070335A500422236803F58053DA65A7B9B1
:107770006379052185F83530A37985F8363020689E
:10778000C36C43F00403C364FFF794F9304606B0BA
:10779000BDE8F081022385F83D3000230422217BDF
:1077A000E07AFFF709F841F2AC520221637B5B01FA
:1077B00003F1A04303F570339950217BE27A42EA4A
:1077C000014241F2B8515A50D2E70323012785F80C
:1077D0003D30B4E72326D9E7DD750000D175000000
:1077E000517600004576000000C00350036B10B5D1
:1077F0009B690446190609D5FFF788FEB0B1206BD6
:10780000FFF720FA01462046FFF790FE236B9A6CA3
:10781000D20711D5012103F5005291649B699B06A3
:107820000AD52046BDE81040FFF7C2BE226BD36CDC
:1078300023F00403D364E9E710BD0000BFF35F8FBA
:10784000074B5A6A22F480325A62D3F8942022F00D
:107850000102C3F89420BFF34F8FBFF36F8F7047BF
:1078600000ED00E070B52648264CFFF7E7FF8442A4
:1078700008BF4FF08043244A18BF20F01F03D2F8FE
:10788000C01018BF203B21F0FF0141F0A001B3F16F
:10789000005FC2F8C0100CD31C4D1D4E296843F088
:1078A0000103C2F898100131C2F89C60C2F8A03000
:1078B0002960844210D01548164B0268124923F003
:1078C0001F0343F00303C1F89820C1F89C30124B0A
:1078D0000132C1F8A0300260BFF35F8F05220A4B6E
:1078E000C3F894205A6A42F480325A62BFF34F8F31
:1078F000BFF36F8FBFF34F8FBFF36F8F70BD00BFAC
:10790000280D0020C40E002000ED00E09C1900208E
:1079100003000020E30E0020E1FFFF3F10B51446F6
:10792000FFF78CFF1F2C21D91A4A1B4CD2F8C0300C
:1079300021F01F0123F47F4343F48073C2F8C03069
:10794000C30618BF20F01F002368124A18BF20305A
:1079500020F01F00C2F8983040F0030041F003010E
:107960000133C2F89C00C2F8A0102360BFF35F8F00
:107970000522084BC3F894205A6A42F480325A62B6
:10798000BFF34F8FBFF36F8FBFF34F8FBFF36F8F77
:10799000002010BD00ED00E09C190020BFF34F8FC8
:1079A0000549064BCA6802F4E0621343CB60BFF39B
:1079B0004F8F00BFFDE700BF00ED00E00400FA05B7
:1079C00008B5FFF7EBFF08BDF8B5114B05460F46AC
:1079D0005C5C032805D8DFE800F002080B0E44F0D9
:1079E00002040C4B1E684EB9F8BD44F00804F8E7D9
:1079F00044F02004F5E744F08004F2E773681A6865
:107A0000144203D0394628465B6898473668EAE74F
:107A100064C10200A419002070B5FEF71FFE0C4ED1
:107A2000054633785BB900F03DF9044620B128469D
:107A3000FEF718FE204670BD0648FDF78CFD00F0ED
:107A400051F80123284633700024FEF70BFEF1E7BE
:107A5000A1190020A419002070470020704770472A
:107A600038B541600446FEF7F9FD05462146044855
:107A7000FDF774FD2846BDE83840FEF7F3BD00BFB2
:107A8000A419002070B5FEF7E9FD044600E000BF30
:107A9000FDF730F930B900E000BF2046BDE8704086
:107AA000FEF7E0BD01210C4E00203170FFF78CFF86
:107AB000012000F019F82046FEF7D4FDFEF7CEFDB8
:107AC0000446FDF727F905460028F1D10146307834
:107AD000FFF77AFF3570DEE7A0190020002070471D
:107AE000704770477047000002280AD003280BD067
:107AF00001280CD1064A136923F00403136130BF37
:107B000070470020FEF7CCBD0020FEF7E1BD7047B6
:107B100000ED00E010B500F0EBFA0A4C0A4B1968D2
:107B20002368C31A01B10BB9206010BD4A699A429B
:107B30003ABF9B1A0022D21A4A6128BF00238968E3
:107B4000F0E700BFB4190020D0190020C38870B539
:107B500004460D463BB9FFF780FF8542064602D238
:107B6000FFF77DFF35460F4965610B68ABB90C60C7
:107B7000A36011E0AD1A9A68184665612AB11346F0
:107B80005A69AA42F6D950B11A4613468460A360D6
:107B900013B15969491B596170BD0020F0E70C60B1
:107BA000F5E700BFD019002038B5134D2B685B698D
:107BB00093B1124A022014681C4400F0D3FA204604
:107BC00000F09EFA00230E492A680B70D0888007C7
:107BD00009D501230B7038BD022000F0C3FA022042
:107BE00000F0E4FAEEE79268002AF4D0506903440A
:107BF000012BEBD9EFE700BFD0190020B41900200A
:107C0000BC19002070B516469DF81420C0E9033653
:107C10000271049ABDF8183002600022C3808260AD
:107C200004460D4600F064FA3044A0613DB9E368B3
:107C3000656113B120462168984796B13546FEF735
:107C40000DFD0646FFF766FF29462046FFF77EFF3B
:107C5000054B1B68A34201D1FFF7A6FF3046FEF794
:107C600001FD002070BD00BFD019002000220C498A
:107C70000B687BB183420AD183687AB193608368D1
:107C80001BB15A6941690A445A61002070471A467B
:107C90009B68EEE70028EFD0022070470B60EEE70C
:107CA000D0190020F8B5FEF7E0FC1E4F06463C78E0
:107CB000002C32D11C4B1C601C4B1C601C4B1C80CC
:107CC00000F0DCF9012000F04DFA00F0A1FA194BA8
:107CD0000546186020B93046FEF7CDFC2320F8BDDC
:107CE000154B02461C6000202346012122F05AFC5D
:107CF000124B00201A6001212A46234622F052FC32
:107D00000F4B2A46186040F2E73123460D4822F017
:107D100049FC0D4B186001233B703046FEF7ABFC6D
:107D20000020DCE7B0190020D0190020B419002091
:107D3000BE190020CC190020C4190020AC19002065
:107D4000A819002018FCFFFFB81900202DE9F04108
:107D50000546F8B1FEF782FC0F4F0646FFF7DAFE44
:107D60002846D7F80080FFF781FF044628B1304647
:107D7000FEF778FC2046BDE8F081A8453B6803D1BA
:107D800023B1FFF711FFF2E7002BF0D1022000F042
:107D9000F5F9ECE72224EDE7D019002070B586B0A4
:107DA00015461E460446059180B1FFF7CFFFBDF88A
:107DB0002C30002202939DF828302046CDE9006344
:107DC00005992B46FFF71EFF06B070BD2220FBE78A
:107DD00038B50C46054698B191B100230B70FEF7FB
:107DE00044FC0121074B1B680BB122781AB1FEF746
:107DF00042FC002038BDAB4214BF9B682170F3E702
:107E00002220F7E7D0190020F0B51F46002387B0E5
:107E10000D46164604468DF81730A0B10DF1170136
:107E2000FFF7D6FF9DF817207AB9BDF83430294600
:107E300002939DF830302046CDE900733346FFF7BA
:107E4000E1FE07B0F0BD2220FBE70320F9E738B5DB
:107E5000FEF70BFC054600F04BF904462846FEF7FA
:107E60000AFC204638BD000070B5FEF7FEFB064652
:107E700000F03EF9084B04461D880120ADB200F029
:107E80009DF918B100F034F9044601353046FEF78B
:107E9000F2FB2046294670BDBE190020014B186830
:107EA000704700BFCC1900200C4B70B51B680D4605
:107EB000834211D340F2E73100248C462146084B1F
:107EC0004FF47A721E680023E0FB06C1604622F080
:107ED00069FB2860204670BD2120FCE7B81900200E
:107EE000CC1900200F4B10B51A689AB14FF47A7173
:107EF000531E1342A0FB01010ED1B2FA82F2C2F16D
:107F00001F04531CD243E04001FA03F3184321FA43
:107F100002F20243104610BD002322F043FB02464A
:107F2000F8E700BFCC190020C2072DE9F34704464B
:107F300020D54A4B4A494B4A1D6812680B681344C6
:107F4000AB42494A0B6004D310685B1B01301060E0
:107F50000B604649136809680B441360444A138850
:107F600001339BB21380FFF7D5FD424B1B680BB169
:107F7000FFF71AFEA3076DD5FEF777FB002605462F
:107F80003746FFF7C7FDB146DFF8E880D8F8004074
:107F90000CB163698BB10022374B012F1A7002D1EB
:107FA000022E08BF1F70002C44D0FFF7FDFD2846AD
:107FB00002B0BDE8F047FEF75EBB23461A7921798F
:107FC000914288BF1C469B6813B15A69002AF5D0BC
:107FD0002846FEF750FB256985B300F089F8A269B1
:107FE000861AF317B54279EB030328DA23691344A1
:107FF000A3610123226982B17BB9A91B0191FEF71C
:1080000034FB824601992046FFF7A0FDA36922694F
:1080100050461344A361FEF72EFBE368E688013760
:1080200013B1204621689847FEF71FFB0546FFF76E
:1080300071FDABE7022000F0A1F8B8E72E46FEF78D
:1080400014FB82462046FFF711FE5046FEF713FB55
:108050000023CFE702B0BDE8F08700BFCC190020B5
:10806000C0190020AC190020C4190020A819002054
:10807000BE190020D0190020C81900201FB5002407
:10808000184B18689A880290D3F806009B7A0090E3
:1080900002A8ADF80C208DF804308DF808408DF85A
:1080A0000C40FEF729FC694601208DF80040FEF7E0
:1080B000E7FB4FF0B0431F219A6922F01F029A613B
:1080C000094A51619A6A12F00802FBD11A62012032
:1080D000FEF7F0FB4FF48062044BC3F880211A6076
:1080E00004B010BD68C102000020005800E100E0AB
:1080F0004FF0B0439A6A1207FCD4186A7047000028
:1081000010B50446FEF7AAFA4FF0B042936A190779
:10811000FCD4136A116C5269120704D4CA1A032AD8
:1081200001D899420ED1E21A022A98BFDC1CB4F1A0
:10813000FF3F38BF013C4FF0B0431C649A6942F0E6
:1081400008029A61FEF78EFA054A13783BB14FF0A8
:10815000B041CB6B43F00203CB630023137010BD1F
:10816000B40B002082074FF0B04200F00103916988
:1081700048BF43F008030B4393617047820700F048
:1081800001030AD50121084A43F0080311704FF09A
:10819000B041CA6B22F00302CA634FF0B0418A6952
:1081A00022EA03038B617047B40B0020830742BFB0
:1081B0000822014B5A617047001000584FF0B0433D
:1081C00001285B6904D0022805D1C3F3C0007047C1
:1081D00003F00100704700207047000010B5FEF763
:1081E00044FA4FF0B04304465B691A07074A03F0AC
:1081F000010003F00D0348BF40F002005361FFF798
:1082000093FE2046BDE81040FEF735BA0020005826
:108210001C20FDF76DBE08B5FCF770FCFCF7CEFC2A
:10822000FCF7D9FCFCF7ECFCBDE80840FCF7F3BC1C
:1082300008B5FCF7F2FCFCF7F1FCFCF7F1FCBDE83B
:108240000840FCF7EFBC08B504F040F90AF062FD05
:1082500007F004FA08F0A7FB002008BD024A034912
:10826000034803F0A3BD00BF74C10200C0C10200F7
:1082700098C1020038B50446FEF7F0F905462046DD
:1082800022F060FB04462846FEF7ECF9204638BD94
:1082900037B504460191FEF7E1F9019905462046FC
:1082A00022F010FB04462846FEF7DCF9204603B016
:1082B00030BD38B50546FEF7D1F90446284622F010
:1082C00049FB2046BDE83840FEF7CCB90A4619B153
:1082D000024B00211B681847704700BFB80B0020F5
:1082E00000F4E040B0F5805F04D0A0F500535842A0
:1082F00058417047012070470E4B0340B3F1607F37
:1083000006D1B1F5885F14BF6FF08600002070477A
:10831000B3F1707F0BD101F4E043B3F5005F06D1F8
:1083200011F4E06F0CBF6FF08600002070476FF013
:10833000860070470000C07F8A42F8B507460D46A8
:1083400000F021819B4822F0FF01814210D09A4C1D
:1083500022F4FF7323F00103A34209D0974B994203
:1083600006D0974922F47F7323F003038B4223D175
:1083700025F0FF01814210D08F4825F4FF7323F0D0
:108380000103834209D08D4B994206D08C4925F4D4
:108390007F7323F003038B420ED115F0FF030BD044
:1083A000884943F000738B4206D16A4032F0FF03E4
:1083B0000CBF01200020F8BD05F0FE43B3F1A06F13
:1083C00017D102F0FE43B3F1A06F40F0DE8082EAE5
:1083D000050333F47E1340F0D88015F40040EAD052
:1083E000C5F30540C2F3054290428CBF0020012036
:1083F000E1E7B3F1407F40F0B38002F0FE43B3F118
:10840000407F40F0C28082EA050333F47E1640F0DC
:10841000BC8039462846FFF76FFF002840F0B58042
:10842000694C12F47C1C04EA020438D0B4F1607F79
:10843000C2F3054C7AD16549D3B243F000738B4245
:1084400078D003F17E410439012975D960498B4206
:1084500076D001318B4275D001318B4274D001311D
:108460008B426BD001318B426AD001318B4269D093
:1084700003318B4264D001318B4263D001318B4296
:1084800062D001318B4208BF402615F47C1FC5F332
:1084900005435BD1664514BF002001208BE7B4F192
:1084A000607F2BD14949D3B243F000738B426ED029
:1084B00003F17E41043901296CD945498B426FD0C3
:1084C00001318B426FD001318B426FD001318B4231
:1084D00063D001318B4263D001318B4263D00331D1
:1084E0008B425DD001318B425DD001318B425DD03A
:1084F00001318B4208BF4FF0400C9CE7B4F1707F14
:10850000C3D107F4E043B3F5005F05D14FF0010C90
:10851000C7F302230CFA03FC07F4E043B3F5005F52
:10852000B3D10126C7F302239E40AEE7B4F1707FBA
:10853000ABD1F1E71026A8E71426A6E74026A4E76A
:108540001C26A2E72026A0E730269EE712F47C1F17
:1085500001D1B34217D02A047FF52DAF634544E71C
:10856000B3F1106F11D125F01F6323F4702363B9A9
:1085700002F0FE43B3F1106F07D11648104040F0EF
:108580001060A84287E7012015E7002013E74FF0AD
:10859000100C50E74FF0140C4DE74FF0400C4AE739
:1085A0004FF01C0C47E74FF0200C44E74FF0300C25
:1085B00041E700BF001300060002000600090006A4
:1085C00000040006FF0000020000C07F030000025C
:1085D000080000020000FFF67FB500F0FE46B6F18D
:1085E000106F0D4603D06FF0850004B070BD20F011
:1085F0001F6424F47024002CF5D10A9C0294099C79
:108600000194089C009401F001F810F1860FECD160
:108610006B681B0AE9D1E6E72DE9F843884617465F
:108620001C4601F0C9F80546002859D1D8F8006069
:10863000B6F8009009F4E043B3F5804FF36808BF43
:1086400027F0010737EA030342D1002C48D02F4A14
:1086500024F0FF03934211D02D4924F4FF7222F03D
:1086600001028A420AD02B4A934207D024F47F7237
:1086700022F0030201F500718A4234D114F0FF02A6
:1086800031D022498B4211D0214824F4FF7121F0CE
:10869000010181420AD01F498B4207D024F47F7325
:1086A00023F00303A1F5A0618B4204D142F00073D3
:1086B000194A93421ED0224648463169FFF73CFED4
:1086C000074668B9224648467169FFF735FED0B9BA
:1086D0006FF0840500233046C8F8003001F0BAF886
:1086E0002846BDE8F88304F0FE43B3F1407F04D18F
:1086F0002304E0D56FF08605ECE7B3F1A06FF7D067
:10870000054B9C42D6E73D46EAE700BF0013000652
:108710000002000600090006FF00000238B50379D8
:1087200004460D4633B9A36820462B6001F092F849
:1087300038B938BDD0E9081201F050F90028F2D05C
:10874000F7E700232B60F4E700F0FE43B3F1407F2E
:1087500070B505460E4640F09980FFF7CDFD002824
:1087600040F0968015F47C1F05D0C5F30543032B1C
:1087700013700DD86BE04C4B2B40B3F1607F69D187
:108780004A49EBB243F000738B4231D1102313708E
:10879000454C2C40B4F1607F6AD14449EAB242F0C2
:1087A00000728A4275D002F17E410439012972D9E2
:1087B0003F498A4271D001318A4270D001318A42E8
:1087C0006FD001318A4211D001318A4265D0013126
:1087D0008A4264D003318A425FD001318A425ED03E
:1087E00001318A425DD001318A424FD140214BE0B4
:1087F00003F17E410439012901D81423C7E72C492C
:108800008B4201D11C23C2E72A498B4201D120238C
:10881000BDE729498B4201D13023B8E727498B4274
:1088200001D14023B3E726498B42EBD001318B4283
:10883000EDD003318B42E5D001318B42E7D00131DD
:108840008B42E9D001318B42EBD0002313706FF0E3
:1088500085001DE0B3F1707FF7D101F4E043B3F57B
:10886000005FF2D10123C1F302218B40DBB27EE72E
:10887000B4F1707F0AD106F4E042B2F5005F05D191
:108880000121C6F3022291408B4201D96FF086008C
:1088900070BD1021F8E71421F6E71C21F4E7202130
:1088A000F2E73021F0E700BF0000C07F03000002C4
:1088B00008000002090000020A0000020B0000028A
:1088C0000C0000022DE9F047174624220D46002136
:1088D000044692B00DEB02009A46DDE91A868DF847
:1088E0001F10DDF8709022F074F81D9B2046002BBD
:1088F00018BF4FF480622B4608BF4FF4006208A9EE
:10890000FFF78AFE044620BBDDF820C009ACBCE8B6
:108910000F000FC49CE8070084E807002846BDF854
:1089200024100DF11F02FFF70FFF044688B99DF8D0
:108930001F30B34224D8CDE90339CDE901A8089905
:1089400000972B46D1E9081209A800F00CFE044656
:1089500020B10023C9F800608DF81F309DF81F007A
:10896000B04204D2321A2121404422F032F8089851
:1089700000F070FF002C18BF204612B0BDE8F08751
:108980006FF08904E5E700232DE9F341D0E90168A0
:1089900004460F4630461146136000F065FF054659
:1089A00088B9304600F062FF054660B9F6B276B984
:1089B000B8F1000F05D1E36823F47F4323F00303EC
:1089C00063B16FF08605284602B0BDE8F08101462C
:1089D000A06800F044FE0028EDD1F2E74FF6F873EE
:1089E00062889A421CD8238B23F00103002BE8D124
:1089F000394601A800F09EFE05460028E3D10FCCC1
:108A00003F683E460FC694E807003B7986E80700BA
:108A10000BB9019BBB603B8B23F001033B83D2E787
:108A20006FF08505CFE7B0F5105F0DD009D8B0F530
:108A3000885F10D0B0F5905F0DD041F201039842ED
:108A400009D06FF08500704721F04003802B02D0E1
:108A5000B1F5807F06D111F0070F14BF6FF08600CB
:108A6000002070476FF08600704770B5046A0546B5
:108A70000E463CB90120FFF70BFC286228B12046C6
:108A80006E6270BD6FF08A00FBE76FF08C00F8E754
:108A900073B50E46114605460192FFF7E6FF044600
:108AA00020B93146019A286A21F06CFF204602B0B5
:108AB00070BD2DE9F041089D88461F46048802B329
:108AC0002046FFF70DFCE0B12B680BB9D3002B60FB
:108AD00020462968FFF7A7FF044678B9CE1DB2EB00
:108AE000D60F11D1069B9A4211D84146384621F043
:108AF00049FF2B68079A0733DB0813602046BDE85F
:108B0000F0816FF08504F9E76FF08604F6E76FF007
:108B10008904F3E710B50446006A10B1616AFFF7F3
:108B2000D5FB206AFFF7C5FB0020C4E9080010BD93
:108B300038B50446FFF7EEFFE3692822012B0CBF8E
:108B400005466FF096050021204621F042FF284699
:108B500038BD13B5044660B101A900F02DFE0446EE
:108B600038B90198C369012B06D900F073FE6FF084
:108B70008304204602B010BD0379FF2B0BD01BB13C
:108B8000806800F085FE04460198FFF7D1FF0028B9
:108B900018BF0446EDE76FF08404F5E773B50446AB
:108BA00008460E4600F0D6FB002320461A4601A9CF
:108BB000FFF732FD70B93446019D0FCD0FC495E823
:108BC000070084E80700338B019803F00103338327
:108BD00000F040FE02B070BD70B5144602881D461C
:108BE0001046049EFFF77CFB50B944F2010322F4C7
:108BF0004050984204D002F44F42B2F5824F0ED159
:108C0000B4420FD82246284621F0BCFE0021321B78
:108C1000281921F0DEFE0020059B1C6070BD6FF05E
:108C20008500FBE76FF08900F8E72DE9F041884601
:108C30001F4616468CB022B3002301223B6002A9D6
:108C4000FFF7EAFCD0B9DDF808C003AC6546CDE912
:108C50000A000FCD0FC495E8070084E80700CDE9AE
:108C600000674346DCE9081203A800F03EFC044616
:108C7000029800F0EFFD002C18BF20460CB0BDE8B4
:108C8000F0816FF08900F9E770B51446028844F26C
:108C9000010022F440568642049D04D002F44F4065
:108CA000B0F5824F13D102F4E042B2F5804F0ED1FD
:108CB000AC420FD81846224621F064FE00212A1B40
:108CC000204421F086FE0020059B1C6070BD6FF0E3
:108CD0008500FBE76FF08900F8E72DE9F04389464E
:108CE000984617468DB052B3002302A91A46C8F819
:108CF0000030FFF791FCE0B9029E33885B041BD57E
:108D0000354603ACCDE90A000FCD0FC495E8070046
:108D100084E80700CDE900784B46D6E9081203A89D
:108D200000F0EEFB0446029800F094FD002C18BF02
:108D300020460DB0BDE8F0836FF08604F3E76FF0D6
:108D40008900F6E72DE9F0411F46002388B005466B
:108D500088461646CDE9043307923B60002A5FD06F
:108D6000B2F1005F5FD205AA04A9FFF70CFE04462A
:108D7000A0B9049B1B6ABBB1049B41465A88284694
:108D8000069206AA029203F1240201925A6A009204
:108D90001B6A324600F082FB0446D0B104980028DA
:108DA00032D0FFF7C5FE2FE06B681B0A07D1079989
:108DB0000498FFF75AFE04460028DDD0EEE732465D
:108DC0004146284607AB00F0F4FA04460028EED0EE
:108DD000E4E70498069B4288D2B943804FF6F872C4
:108DE00093421AD82B8813B102889A4212D12B6A67
:108DF00083B96B8813B142889A420BD13946FFF789
:108E00008DFC04460028C9D1204608B0BDE8F08199
:108E10009A42E3D06FF08604C0E76FF08504BDE7A7
:108E20006FF08604F0E76FF08504EDE7036810B596
:108E3000044653B100F0E1FB00232360A38823F430
:108E4000FF7323F00103A38010BD1846FCE72DE952
:108E5000F04105460C4600218CB0174603A8242299
:108E60009846029121F0B5FD2B68002B3DD1B8F159
:108E7000000F20463B4614BF4FF480624FF400625F
:108E800002A9FFF7C9FB044600BB029E03AC0FCE4C
:108E90000FC496E8070084E807003846BDF80C10B8
:108EA0002A1DFFF751FC044680B96B79284668F308
:108EB00000036B71029B03A9D3E908230097B8F163
:108EC000000F0FD000F05CFB044610B12846FFF7FE
:108ED000ADFF029800F0BEFC002C18BF20460CB07D
:108EE000BDE8F08100F05FFBEEE76FF08804EDE78E
:108EF0000123FFF7ACBF38B50368054614464BB1F4
:108F000032B100F063FB044610B12846FFF78EFF34
:108F1000204638BD6FF08804FAE72DE9F041164687
:108F2000026805460F469846F2B14279D2071BD532
:108F30000279CAB1B2421AD800F051FB044618B106
:108F40000023C8F800602B712879B04204D2321A8D
:108F50002121384421F03DFD2846FFF767FF002C12
:108F600018BF2046BDE8F0816FF08804E8E76FF095
:108F70008904E5E71FB501240394089C0294079C2B
:108F80000194069C0094FFF79DFC04B010BD000006
:108F900037B50C4D0C462B78DB070FD500230A465E
:108FA0000193014601AB281D02F059F820B9019B3D
:108FB000A34218BF6FF0930003B030BD6FF088007C
:108FC000FAE700BFD41900202DE9F04F00249A469B
:108FD00001F0FE4397B0B3F1806F0E46DDE920B893
:108FE0009146229F089478D10B464FF4807208A9CD
:108FF000FFF712FB0546002841D1DDF820C00DAC7B
:109000006546CDE914000FCD0FC495E80700BCF804
:10901000003084E8070003F4E042B2F5005F1BD1A2
:1090200013F4E06FC3F3022116D0304826F48072A7
:1090300082420AD000F50070864206D02C48864253
:1090400003D0A0F53F40824206D101248C40102C71
:109050000DD96FF0830512E042F20402934202D16F
:10906000244B9E421ED0244B9E421DD10D24A04570
:1090700030D3214609A8FFF78BFF0546A8B1089811
:1090800000F0E8FB064665BB50BB24B122465846BB
:1090900009A921F077FC3B6823443B60304617B0B8
:1090A000BDE8F08F0C24E2E70024A8EB040305934D
:1090B0000BEB0403CDE903A3CDE90149089909AB02
:1090C000009306973346D1E908120DA800F03AFA4A
:1090D0000546D4E76FF08905D1E76FF08605CEE746
:1090E000054600232E463B60D8E700BF0010C004B1
:1090F00000FF4004000180040013C0042DE9F04784
:1091000005469A46002386B0059305F0FE43B3F169
:10911000106F0846DDE90E961746DDF8408022D133
:109120002B464FF4804205A9FFF776FA044658B95A
:1091300053463A462846CDE901680599CDF8009096
:10914000FFF74AFA044628B131464846FFF720FFA8
:10915000C8F80060059800F07DFB002C18BF204681
:1091600006B0BDE8F0876FF08604EDE7034610B562
:109170000C461146DA6900880AB91B6A3BB9FFF749
:10918000AFF838B12046BDE81040FFF701BF6FF0DF
:10919000860010BD6FF08500FBE72DE9FF4100233D
:1091A000CDE901330B60438806460D46002B00F0E5
:1091B0008E80038803F4E043B3F5804F00F087808E
:1091C00002AA01A9FFF7DFFB044600BB019B1B6A53
:1091D00073B10199304601F12403D1E9081200F07E
:1091E0003FF90446002875D00198FFF793FC0EE084
:1091F0007268170A60D1B6F8008071884046FFF7A0
:109200006FF860B14046FFF70EFC044660B101986C
:1092100008B1FFF78DFC204604B0BDE8F08128F0CE
:10922000FF03B3F5E24F4FD108F4E043B3F5805F9D
:1092300002D0B3F5005F02D1CA1DD7100AE047F291
:10924000010398450FD14A080132D21002EBC20245
:1092500002F13B07039703990198FFF706FC0446C8
:109260000028B6D0D3E744F20103984503D1CA08D9
:1092700002F11007EEE747F20203984505D1CA084C
:1092800002EB420202F15A07E4E744F20203984576
:1092900005D1CA0802EB420202F14A07DAE728F0D8
:1092A000FF00B0F5E24FC7D0B0F5824F01BFCA1D35
:1092B000D2105200571CCDE7304603A900F07EF8CB
:1092C00004460028C7D0A2E76FF085049FE76FF03F
:1092D0008604A0E729460198FFF720FA04460028F3
:1092E00099D094E708B500F00BFA084B0C211A78D6
:1092F000064812F0060F1CBF0022C3E90122FEF748
:10930000E5FFBDE8084000F053B800BFD4190020C5
:1093100038B50F4D2B7813F0010213D1C5E90122A6
:10932000022262F342032B7000F0DEF9044658B9C2
:1093300000F03CF8044638B92B7843F001032B7059
:10934000204638BD0024FBE7FFF7CCFFF8E700BF5D
:10935000D419002010B50446C069FEF7AAFF2046C4
:10936000BDE810402422002121F033BB2DE9F0415B
:1093700005460F4690461C469BB119460120FEF754
:1093800087FF064678B12246414621F0FBFAE8699C
:1093900008B1FEF78EFF0020C5E907642F80BDE805
:1093A000F0811E46F3E76FF08C00F8E701F04EBE47
:1093B000704700226FF086001A6070470288438869
:1093C0004068000A47D102F4E040B0F5805F02D067
:1093D000B0F5005F05D10733DB0863B96FF0850096
:1093E000704747F2010082420FD15B080133DB086E
:1093F00003EBC3033B3322F0FF02B2F5824F01D1EE
:10940000012BEBD000200B60704744F20100824238
:1094100002D1DB081033EEE747F20200824204D1AA
:10942000DB0803EB43035A33E5E744F202008242D0
:1094300004D1DB0803EB43034A33DCE722F0FF00EF
:10944000B0F5E24FC7D0B0F5824FC7D10733DB0884
:109450005B000133CFE700236FF086000B6070479D
:109460002DE9F041476804463F0A0D4616469846E6
:1094700011D107887F0407D4434632462946204647
:10948000BDE8F041FFF772BE02F0D6F810F1860F8A
:10949000F2D0BDE8F0816FF08600FAE72DE9F04FD9
:1094A000456885B02D0A0446DDE90E7A89461646E0
:1094B0009846DDF840B013D1CDE901AB009702F03A
:1094C0001DFA10F1860F0DD143463246494620461B
:1094D000CDE90FAB0E9705B0BDE8F04FFFF7E9BA45
:1094E0006FF0860005B0BDE8F08F70B44668360AAC
:1094F00002D170BCFFF770BB6FF0860070BC704784
:109500002DE9F34745680446DDE90A7A2D0A8946C4
:109510001646984611D1CDE9007A02F018F910F1FB
:10952000860F0CD14346324649462046CDE90A7A99
:1095300002B0BDE8F047FFF7A7BB6FF0860002B0AE
:10954000BDE8F0872DE9F043DDE90BCED0F80490BB
:109550005FEA192903D1BDE8F04302F00BBB6FF0BD
:109560008600BDE8F083F0B5D0F804E05FEA1E2E77
:1095700003D1BDE8F04002F021BB6FF08600F0BDE2
:1095800013B504464868000A0AD10498009004F113
:10959000080002F052FB08B90423236002B010BD9A
:1095A0006FF08600FAE713B504464868000A0AD14E
:1095B0000498009004F1080002F088FB08B9042325
:1095C000236002B010BD6FF08600FAE70368042B39
:1095D00002D1083002F07CBB6FF08600704710B4F7
:1095E0000468042C04D15DF8044B083002F08DBBF4
:1095F0006FF086005DF8044B70470368042B02D1BE
:10960000083002F0A2BB6FF0860070472DE9F041F0
:1096100098460D4600230E4690B007ACCDE90E33B8
:10962000844617460FCD0FC495E80700736884E899
:1096300007001B0A10D1189B60460493179B0097E4
:109640000393169B07A9CDE90183D6E9082302F00D
:1096500087FB10B0BDE8F0816FF08600F9E76FF08E
:109660004043421E9A4208D329B100F1404098423B
:109670008CBF00210121084670470121FBE7000053
:1096800000F100420332022A38B504460D460ED8D6
:109690002821144B01FB02339A6882421CD1DA69FB
:1096A000511C1CD000200132DA612B6038BD012131
:1096B000FFF7D5FF68B10B4B9A689442EFD01A6B55
:1096C000944204D09A6D944206D15033E7E7283390
:1096D000E5E76FF08700E9E76FF08B00E6E76FF0F2
:1096E0009600E3E7E0190020044A002092F8783061
:1096F00043F0010382F87830704700BFE019002082
:1097000038B501250A4C2046E561FFF711FA04F14E
:1097100028006564FFF70CFA04F15000E566FFF7D6
:1097200007FA94F878306FF3000384F8783038BD86
:10973000E0190020F8B51E4C064694F878300F4624
:10974000D8072ED500252346294618881A46A8B1E1
:109750002DB91A791AB1DA69002A08BF1D460131FC
:10976000032903F12803F0D115B96FF08C001AE03A
:1097700001232846EB61FFF7DBF92A46D369591C20
:1097800002D16FF096000EE000200133D361141B6C
:10979000084BE4105C4304F10044033C34603A603D
:1097A000F8BD6FF0880000233B603360F8E700BF2E
:1097B000E0190020CDCCCCCC0023F0B50B60244BBD
:1097C000074693F878300D46DC0785B03CD5FFF7A7
:1097D00057FF10F18C0F044625D1294601A8FFF749
:1097E000A9FF0446F8B901232E68CDE90200B7604D
:1097F0003046736003AA02A900F049F9044628B96B
:10980000DDE902123046FFF743F90446DDE90201C3
:1098100000F033F954B12868FFF78AF914F18C0F7E
:1098200008BF6FF08704204605B0F0BD2B68DA68EA
:10983000D00444BF42F48062DA60DA689104F2D561
:1098400042F40062DA60EEE76FF08804EBE700BFF5
:10985000E019002038B1C3691BB1013BC36100208E
:1098600070476FF09600704700207047C0B2FF2825
:109870000CBF6FF086000020704707B500216A46D4
:1098800001F04EFB8C3018BF012003B05DF804FBE3
:1098900013B500216A46044601F042FB8C3002D128
:1098A000002002B010BD0021204601F06DFB0146F2
:1098B00028B96A46204601F033FB8C30F0D06FF0B7
:1098C0009800EEE730B4224D2C681C606C685C6038
:1098D00000241C725C729C72DC725468250A1C7332
:1098E0005D73250C240E9D73DC7314881C74240A8C
:1098F0005C7454889C74240ADC74D468250A1C7532
:109900005D75250C240E9D75DC751469250A1C7681
:109910005D76250C240E9D76DC765269140A1A7742
:109920005C77140C120EDA770A0A83F821200A0CED
:1099300083F822200A0E9C7783F8201083F82320D6
:1099400030BC0A46014603F1240021F01BB800BFD9
:109950000AC202002DE9F843232904460F46914626
:109960009846089E04D86FF098052846BDE8F8830D
:109970000822194920F0F6FF05460028F3D1A36814
:10998000002BF0D1216A243FB942C8F80010EAD870
:10999000B1F5005FE7D271B9C9F80000E368736000
:1099A000238A3380638A73806369F360A3693361B8
:1099B000E3697361D9E70120FEF76AFCC9F800008A
:1099C00030B1D8F8002004F1240120F0DBFFE5E7F6
:1099D0006FF08C05C9E700BF0AC202002DE9FF4104
:1099E00006461446884600293ED0002A3CD0B2F5EF
:1099F000005F3CD202F1240739460120FEF748FC03
:109A00000546B8B30346324621464046FFF75AFFA3
:109A1000B66800243046FFF730FF01281ED02146EB
:109A20002B463A463046009401F08EF90146C0B903
:109A3000304602AA01F074FA044620B9029B9F4204
:109A400005D06FF098043046002101F09DFA2846B9
:109A5000FEF72FFC204604B0BDE8F0816FF08A04C9
:109A6000F5E76FF09804F2E76FF08604F2E76FF025
:109A70008D04EFE76FF08C04ECE710B5044608B1F5
:109A8000FEF724FC2046BDE81040FEF712BC2DE98D
:109A9000F047D0F808A086B081460F4616465046DB
:109AA000002104AA01F03CFA044610BBDDF8108046
:109AB00001204146FEF7ECFB0546002835D0214643
:109AC000504604AA039401F02BFA044670B903AB84
:109AD00002462146CDE900535046434601F0BCF909
