:1000000000100020C501000075010000E905000096
:100010007501000075010000750100007501000008
:100020007501000075010000AC240000750100009E
:1000300075010000F4240000750100007501000046
:1000400075010000750100007501000075010000D8
:1000500075010000750100007501000075010000C8
:1000600075010000750100007501000075010000B8
:1000700075010000750100007501000075010000A8
:100080007501000075010000750100007501000098
:100090007501000075010000750100007501000088
:1000A0007501000075010000750100007501000078
:1000B0007501000075010000750100007501000068
:1000C0007501000075010000750100007501000058
:1000D0007501000075010000750100007501000048
:1000E0007501000075010000750100007501000038
:1000F0007501000075010000750100007501000028
:100100007501000075010000750100007501000017
:100110007501000075010000750100007501000007
:1001200075010000750100007501000075010000F7
:100130007501000010B5054C237833B9044B13B199
:10014000044800E000BF0123237010BD1010002000
:10015000000000001826000008B5034B1BB103493E
:10016000034800E000BF08BD00000000141000209C
:1001700018260000FEE70000064B0748DA1C121A9A
:10018000C11E22F00302994288BF0022034902F0F7
:1001900061B900BF101000200810002024260000C4
:1001A000064B0748DA1C121AC11E22F003029942BC
:1001B00088BF0022002102F05AB900BF2C10002095
:1001C0001010002008B5084B83F30A88074B084A33
:1001D000C3E9002200F00EF800F08AFAFFF7CCFF26
:1001E000FFF7DEFF00F004FA0000002000100020FE
:1001F000A5EDF5FE044B054A9A60D3F8882042F439
:100200007002C3F88820704700ED00E00000000095
:100210004FF098435A6CD202FCD5586D00F4702010
:100220007047C0F30C032DE9F04105460F46164612
:100230000BB900F090FB05F5005424F4FF5424F0B2
:100240001F0405EB0608A04507D832463946284664
:10025000BDE8F041022300F085BB204600F07BFBA7
:1002600004F50054EFE770B40025AD6A03462E692B
:10027000864206D86C6913449C4202D370BCFFF7D7
:10028000D0BF70BC70471FB510F5004F00F500439C
:10029000144603931AD2039BB3F57E2F16D2039B09
:1002A000C3F57E23934211D348B9836A5A69B2F5E4
:1002B000004F04D91869019100F04DFB01992246C5
:1002C000039804B0BDE81040FFF7ABBF04B010BD09
:1002D000F0B5421ED11C034685B019D86E460D4CB0
:1002E00004F11007354620686168083403C5BC4234
:1002F0002E46F7D10DF10F010F3311F8010912F855
:10030000014F844204D19A42F7D1012005B0F0BDDB
:100310000020FBE798240000036913F0FE0F0CBFD8
:1003200001200020704738B504460D46FFF7D0FF86
:1003300048B16369012B09D12046FFF7EDFF08B1F1
:10034000A3692B6038BD01202C60FBE70020F9E792
:100350002DE9F0410368044603F16043B3F5C03F63
:100360004FF00000A0B029D8826A636816699E42E7
:1003700024D8B3F5801F21D8656B06F14003AB424A
:1003800068D8B5F5801F65D82846FFF7A1FF00287B
:1003900060D02846FFF7C0FF80B16B6973B1022BB4
:1003A0000FD1AB69C4F1040119444FF0FF3220466C
:1003B00001F08AF8284BC31A5842584120B0BDE8D2
:1003C000F08140F2046328460493FFF781FF08B9E7
:1003D0000020F3E72846FFF79FFF0028F8D000270A
:1003E000D7F834804046FFF773FF0028F0D0503E26
:1003F000B045EDD8284605A9FFF795FF0028E7D0BE
:10040000BA6A059B12699A42E2D89C42E0D8B3F5D9
:10041000801FDDD806A801F019F9059A2146121BA4
:1004200006A801F01DF906A801F01CF9059C01F0D1
:100430001DF9039001F032F921460090039B04F16D
:10044000200206A801F088F804900498B0FA80F021
:100450004009B3E70120B1E7E320BBDE70B54FF000
:10046000FF3290B005460C4601F02EF81A4B984228
:100470002ED11C22002101A801F0F9FF174B2946BB
:100480006846043C009301F032FE2146684601F0C4
:100490002EFE684601F034FEFFF7BAFE0646B8B9F4
:1004A00040F2022000F009FA1C22314609A801F0AE
:1004B000DEFF0B4B294608A8089301F018FE08A898
:1004C000214601F014FE08A801F01AFEFFF7A0FE75
:1004D000002010B070BD00BFE320BBDE010005436B
:1004E0000100064330B5044691B01C22002101A84A
:1004F00001F0BDFF114B21466846009301F0F7FD66
:10050000684601F0FDFDFFF783FE054698B940F20D
:10051000022000F0D2F91C22294609A801F0A7FF09
:10052000074B08A82146089301F0E1FD08A801F057
:10053000E7FDFFF76DFE002011B030BD0000024363
:100540000000034310B58CB01C220446002105A80E
:1005500001F08DFF0A4B0194049301230293094B90
:1005600001A904A8039301F0B8FD04A801F0C8FD97
:10057000FFF74EFEB0FA80F040090CB010BD00BF8E
:1005800000000843040000204FF0FF3313B5044679
:1005900001A80193FFF7D6FF20B1019BA3422CBF16
:1005A0000020012002B010BD4FF40040704701F060
:1005B000F9BB01F062BC000038B50C46054680B1BD
:1005C00079B100230B60074B036001F030FC013070
:1005D0001EBF2B6843F440432B60236843F4005351
:1005E000236038BD142400404FF4017000F08AB934
:1005F00013B501A801F0C8FD9DF80530012B27D1E6
:10060000334A936DDB0313D4536B23F4FF0323F4BA
:10061000FE4343F4BC1343F4A0635363136B23F40E
:10062000704343F440431363136B43F4E063136379
:100630009DF8043063B94FF000531B68254B1B68CD
:10064000254B1B68254B1B68254B1B68254B1B68DE
:10065000254AD2F8803043F00303C2F88030FFF718
:10066000A6FF00F01EF908B900F009F901F0B9F988
:10067000044658B900F015F908B100F00CF940F241
:10068000012000F03FF94FF4017018E000F009F983
:1006900008B900F0FAF800F01BF9012802D900F0BF
:1006A000EEF8FEE700F01EF9104B0193019B002BC2
:1006B0000ADC40F205439C42E5D140F2032000F001
:1006C00021F9002002B010BD019B013BEDE700BF06
:1006D00000C00040004000200080002000C000203A
:1006E00000000120004001200080004000350C0087
:1006F00013B501244FF040238DF806408DF80740D4
:10070000D3F894305B0610D500F010F9A0F2022067
:1007100080B2072809D804FA00F010F0C90F1EBFF4
:1007200000238DF806308DF807304FF480435B6866
:10073000013308D14FF4027000F0BFF800238DF8A8
:1007400006308DF807309DF8073063B14FF48040D4
:10075000FFF7FEFD8DF806009DF806301BB94FF43B
:10076000027000F0AAF89DF806308BB100F099F8FD
:1007700008B100F090F84FF48043064A93601846A1
:10078000016881F3088881F3098840688746FEE79D
:1007900002B010BD00ED00E0B1F50D7F10B50446CC
:1007A0000FD34FF40D72002101F061FE04F5DE72EB
:1007B00004F5AA7104F12C000023BDE8104000F0FC
:1007C00023BA40F2052010BD13B50446009101463E
:1007D0002C3000F055FAC4F8300218B141F207038A
:1007E000984209D1A3784BB140F2032040F2022392
:1007F000E278002A08BF184602B010BD40F201207E
:10080000FAE72DE9F04387B00DF1080904460E46DA
:1008100017460021102248461D46DDF8388001F0B9
:1008200026FE00211C22C8F80010284601F01FFEF9
:1008300032463B462146CDF8009004F12C0000F0F2
:100840001FFA23789A0744BF6268C8F80020DB07C4
:1008500009D504F1080304F1240253F8041B934260
:1008600045F8041BF9D1237840F20640002B18BF4D
:10087000002007B0BDE8F0834FF40D7070474FF0D3
:1008800000534CF23C325A8070474FF000534AF606
:10089000C0325A8070474FF000534FF20F025A8017
:1008A00070474FF000534AF6C0305B8823F00F03C7
:1008B0009BB21B1A5842584170474FF0005208B57E
:1008C0001080FFF7EEFF10B94FF20F03538008BD01
:1008D00008B5FFF7E6FF20B14FF00053588800F04D
:1008E0000F0008BD08B5FFF7DCFF50B14FF0005214
:1008F000538803F00F010F2914BF013323F00F03B6
:10090000538008BD08B5FFF7D8FFBFF34F8F0549E7
:10091000054BCA6802F4E0621343CB60BFF34F8F0C
:1009200000BFFDE700ED00E00400FA054FF00053C2
:100930004FF20F015A888A4201D1188870473AB99C
:100940001B8840F20220012B18BF4FF40070704743
:100950004FF40070704708B501F0E6FAB0FA80F085
:10096000400908BD072B10B5044618460FD862B1E0
:1009700042EA04039B070AD113460A46214601F0C6
:100980002FFBB0FA80F0400910BD0120FCE70020E9
:10099000FAE7134610B542B103439B0707D101F0B4
:1009A000E7FAB0FA80F0400910BD0120FCE7002012
:1009B000FAE7002070470020704770B5D1E9015276
:1009C000AA4205D290F840302B449B1A402B10D9F4
:1009D000002012E00A6890F84040D65C90F8412070
:1009E0000133224402F03F02013486548B6080F8C8
:1009F00040408B689D42EDD8012070BD2DE9F84341
:100A00001D461746D1E901329B1A90F84020044652
:100A100013449D420E469DF820909DF8248056D99F
:100A2000FFF7CBFF00285CD1142341F2020084F8C9
:100A30004630BDE8F88394F84120A25CFA5494F85B
:100A400041200133013202F03F0284F8412094F842
:100A50004020013A84F8402094F840200AB19D4299
:100A6000E9D1D6E90121914201D29D4231D89D427E
:100A7000DAD129463846D4F8882000F025FDC4F89C
:100A80008800B9F1000F04D02A463946E06C00F026
:100A9000E7FDB8F1000F08D094F843308BB12B4636
:100AA0003A463946A06C00F046FD94F8433043B115
:100AB000E36DA26D2B449342E36524BF002384F8C9
:100AC0004330636D41F203002B446365B1E70023BB
:100AD000C2E73268525CFA54B26801330132B26044
:100AE000BFE70020A5E700007FB50023CDE9003374
:100AF000082315460DEB03020446FFF77FFF41F282
:100B000003039842064626D194F8433063B1082285
:100B1000E06C0DEB020100F0A3FD08230DEB0302D6
:100B20001146A06C00F007FD039A029B6A6094F8DE
:100B300043202B605AB9094A934208D0084A93428D
:100B400005D00822E06C0DEB020100F089FD6B6816
:100B5000236500236365304604B070BDF70A0AF7C9
:100B6000FC0404FC2DE9F743044658680E4617467A
:100B70009846002842D011F0030342D19B6A206EB0
:100B80001B6902EB000C1D1D65451CD81C339842E7
:100B900019D28542294638BF01469C4594BFC1EB16
:100BA0000C02C1EB0302081AC5F1680506EB000947
:100BB000681820444946019201F04CFCFF21484648
:100BC000019A01F054FC48F20403226E9A420BD8B9
:100BD00048F20701B818884206D99B1AF258C4F89F
:100BE00080204FF0FF32F2503A46D8E90035206EAF
:100BF0003146A8470020226E3A44226603B0BDE881
:100C0000F08341F20200F9E72DE9F04100254FF0B1
:100C1000FF3704468846164603F0200380F842302A
:100C20001822FF21C0E91855A0F8405080F8435021
:100C3000A0F8445080F84650C0F88870683001F041
:100C400016FC88222946C4E91286C4F88070C4F8CC
:100C5000847004F1900001F00AFC40F20113A4F842
:100C600024310123C4E9475784F8185184F8263108
:100C700016B1304600F0EAFC0020BDE8F08100002B
:100C80002DE9F04FA7B0CDE91323029300230446CA
:100C90000E46309DDFF8B4931593159A029B9A4245
:100CA00001D30020C7E094F84630142BF6D8DFE8D3
:100CB00013F06700AE00A800520039002E00500269
:100CC000390048023900020239004802970305043E
:100CD00015008C013E033E03D00205044FF00008CE
:100CE000636D0F2B00F291800127102316AA204676
:100CF000CDF80480009713A9FFF780FE41F20303AB
:100D00000990099A9A4200F05281099B44E0012718
:100D1000D4E91432934200F25E8184F8467041F2C5
:100D2000030339E04FF00108D4E9147297426CD9FB
:100D3000BF1ADDE91423D21A94F84030032F1A4465
:100D400040F20B82032A00F20B82204613A9FFF720
:100D500034FE002320E00127636D072BDFD8082332
:100D600016AA2046CDE9007713A9FFF747FE41F206
:100D700003030C900C9A9A4200F0B2810C9B0BE09A
:100D800016AA204613A9FFF7AFFE41F20302069010
:100D9000069B934202D0069B059345E0179A16994D
:100DA0002265002262659E4A914240F0A48102229F
:100DB00084F84620F0E7012316AA00932046082372
:100DC000019713A9FFF71AFE41F203030790079A50
:100DD0009A4201D0079BDFE7169B03F07F43B3F1F4
:100DE000407F05D0142384F8463041F20903D3E74D
:100DF000179BD80706D594F8423043F0010384F8D6
:100E000042300027636D072BD5D901239EE1204690
:100E100016AA13A9FFF768FE41F203030890089F82
:100E20009F420BD0089F059741F20303059A9A420F
:100E30003FF433AF059827B0BDE8F08F94F8442015
:100E4000169B2AB1774A934240F087800D2336E003
:100E500094F84220D10741D594F84320002A3DD18F
:100E600071498B4233D022D8704A934275D014D83E
:100E70006F4A934200F0888004D8694A93426CD04C
:100E80004B456AD0142316A884F84630FFF791FD2D
:100E9000002865D141F20807C5E7664A934279D038
:100EA000F0D8654A934258D0644A9342E9E75D4AD4
:100EB0009342CBD006D8624A9342E3D10F2384F801
:100EC0004630B0E75F4A934247D05F4AEDE71023D0
:100ED00084F84630236DC4E91632A4E7574A93429A
:100EE0004AD02BD8514A934244D022D84B453FD0C8
:100EF0004F4A934244D016A8FFF75BFD00284BD021
:100F00001323169884F84630C4F88C00FFF753FD7D
:100F100094F842309A0686D5002884D04368002B86
:100F200081D0204698470890089B002B3FF47BAF68
:100F300016E0414A9342DED10323C0E7414A93427F
:100F40001CD010D83B4A934220D0364A9342D2D18B
:100F500094F84330002B3FF479AF142384F84630E3
:100F600041F201075FE7384A9342C4D10823A6E75C
:100F70000A23A4E70523A2E70623A0E70C239EE7A4
:100F800094F84330002BE8D1112398E794F84330CC
:100F9000002BE2D1122392E7142384F8463094F810
:100FA0004330002B3FF476AF41F204073BE7D4F81F
:100FB00048A000F08BFB80230221CDE9000317AA93
:100FC0003B46504600F094FA8AE6012384F8433009
:100FD00084F8463061E616AA2046CDE9007713A9C9
:100FE000FFF70CFD41F203030A900A9A9A4201D0DE
:100FF0000A9BD1E60DF1580C06F108030DF1700EB5
:10100000624603CA724518605960944603F10803AA
:10101000F6D110681860337843F00103337077E637
:10102000EB17A603FC0404FCF90707F9F40A0AF419
:10103000F30B0BF3F70A0AF7F50909F5F60808F6BA
:10104000FA0606FAFD0303FDFE0101FEEB17A65E9C
:10105000337843F004033370199BB36273785B07F2
:1010600026D5EB238DF8583017238DF85930A62359
:101070008DF85A305E2300208DF85B30236D60665A
:10108000C4F8843094F8453043F0020384F84530C6
:10109000EF686FB104222B6816A9B8470822606E6A
:1010A0002B68EF6818A91044B847636E1033636665
:1010B0000B2384F84630636D072B3FF630AE0123D7
:1010C00018AACDE900332046082313A9FFF796FCA0
:1010D00041F203030B900B9A9A42B9D00B9B5BE64B
:1010E0003378179A43F002033370169B7360236DB5
:1010F000083B73622AB1142384F8463041F201039D
:101100004AE6042384F8463094F84530626643F09A
:10111000010384F845301FE6042316AA2046CDE9D2
:10112000007713A9FFF76AFC41F203030D900D9AB3
:101130009A4201D00D9B2FE6236D042B02D9169BFA
:1011400023660127636D032BE6D9092384F8463013
:10115000E5E50023636607233AE797423FF6F5ADDE
:10116000402F28BF4027974228BF1746032F88BF2C
:1011700027F003073B4616AA2046CDE9008813A9AD
:10118000FFF73CFC41F203030E900E9A9A4201D005
:101190000E9B01E694F846B0BBF1070F04D1D5F8D9
:1011A00008A0BAF1000F1BD1042FC7F1040A88BFB1
:1011B0004FF0000A16AB5246FF21D81901F057F93B
:1011C000BBF1090FBA4414D12B465246204616A94A
:1011D000FFF7C8FC0E900E9B002B3FF4A5ADD7E7A0
:1011E0003A462B68606E16A9D047626E3A44626632
:1011F0009AE5BBF1040F20D173789F077FF594AD7A
:10120000EB68002B3FF490AD626E042A0BD80AEB1A
:101210000203062B07D917AB9B1A1A68C4F884205F
:101220004FF0FF321A60EF6852462B68606E16A9C5
:10123000B847676E5744676676E5BBF10B0F7FF4DE
:1012400073AD737858077FF56FADEF68002FEBD162
:101250006AE594F8427017F0200707D0D4F88C00A4
:10126000FFF7A9FB074600283FF448AF4FF0010AFB
:1012700042E04BB347B33B6933B320469847DDE9BF
:10128000143294F840809B1A43448342FFF45DADCE
:10129000D4E91421A2EB0108B8F1400F28BF4FF0A8
:1012A0004008984528BF984616AA43462046CDE9EF
:1012B00000AA13A9FFF7A2FB41F203030F900F9AB4
:1012C0009A4203D00F9B67E50120D8E794F842309B
:1012D000990611D5002F3FF411AFD7F808B0BBF134
:1012E000000F3FF40BAF2B464246204616A9D847C5
:1012F0000F900F9B002BE5D1D4E9142194F84230D4
:10130000914203F02003B4D3002B3FF47EAD002FB5
:101310003FF47BADFB68002B3FF477AD29462046B8
:1013200098470F900F9B002B3FF46FADCAE7002149
:101330008A6A496B1269503A91423FF6DFAE112B2F
:101340000FD194F81831002B7FF45FAD41F2060302
:101350001093109A9A4202D1142384F84630109BBD
:101360001AE594F84430002B7FF44FADCDE90033FB
:1013700016AA4023204613A9FFF740FB41F20303BE
:101380001090109A9A42EAD1E06C00F06BF994F850
:101390001831A3B104F1B403E06C00931EAA04F168
:1013A000940316A900F0D8F81090109B9BB100236D
:1013B000F370142384F8463041F20603ECE4E76C42
:1013C00000F054F9039000F069F9039B00901EAA05
:1013D000384616A9E6E70123F37084F8443014E593
:1013E000002316AACDE900332046042313A9FFF7F2
:1013F00005FB41F203031190119A9A4202D0119B0E
:10140000059317E5D4F888202E4B9A4205D0142373
:1014100084F8463041F20503F2E70123F37094F8B3
:101420004530DA0707D5EF682FB104222B68104644
:1014300004F18401B84794F845309B0707D5EF685D
:101440002FB104222B68104604F18401B847236EA3
:101450006BB36F685FB34FF0FF3304F18001042278
:1014600012A81293029100F0E5FF28B1042248F27D
:1014700004002B680299B84704F168090422494620
:1014800012A800F0D7FF90B100239B6A1422D3F872
:10149000108004F16C0108F10800D5E90037B84765
:1014A000D5E900370422494608EB0200B84701237A
:1014B000B3700E2384F846300023A1E741F2070001
:1014C000B9E400BFE320BBDE30B501240025074BA3
:1014D00001445C609D601A61DC60884201D1586AF9
:1014E00030BD10F8012B1A62F7E700BF00800840FA
:1014F000F7B50446203016461D460F46019000F011
:1015000055FEDDE90812019800F054FE002384F82E
:10151000587063643368C4F859307368C4F85D3038
:10152000B368C4F861302B0C6DBA84F86530A4F848
:10153000665003B0F0BD1FB50C46194600F14803D4
:10154000CDE90142009300F1440200F1580320303C
:1015500000F0ACFE04B010BD2DE9F04399B00E468A
:1015600015461C460746DDF88090002861D000290A
:101570005FD0002A5DD0002B58D02F4B2F4AB9F1F5
:10158000000F14BF984690461C22002111A800F0BD
:101590006EFF2B4B414610A8109300F0A8FD2021B0
:1015A00010A800F0A4FD0122264B0194029203939F
:1015B000CDF810900592069354B1B9F1000F07D001
:1015C00001A910A800F07FFD04A910A800F07BFD80
:1015D000079701271B4C07A910A80897099400F04A
:1015E00072FD0AA910A80A960B970C940D950E97F8
:1015F0000F9400F068FD0DA910A800F064FD10A87C
:1016000000F07EFD104B00934FF098435A6CD202CD
:10161000FCD55B6D40F2046003F470230093009BE3
:10162000002B08BF002019B0BDE8F083DFF80C8064
:10163000AAE740F20160F6E71F2400801F24FC8423
:1016400000000106200000207856341210B5044630
:1016500000F0F4F82046BDE81040002100F0F2B898
:1016600000F0F5B8014600F0FFB8000000B591B0F9
:101670000023402269464FF4807000F05FFDB0F512
:10168000A02F07D0B0F5302F034818BF002011B0AD
:101690005DF804FB0048FAE74CE30F0000B591B099
:1016A0000023402269464FF4807000F047FDB0F5FA
:1016B000A02F07D0B0F5302F034818BF002011B07D
:1016C0005DF804FB0048FAE76CE30F000048704740
:1016D00086E20F002DE9F34799460A9B0C461968EC
:1016E00005463F29164642D85A68002A41D0224A68
:1016F000002E14BFB046904601F03F07091928BFDD
:101700005A68196024BF01325A60AFB1C7F1400A6C
:10171000A24521D82946524609EB070000F09AFE5F
:101720000123414600934A463346002000F0A4F8C6
:10173000B046403C55443C443F2C0CD9A3092A46B2
:10174000009341463346002000F096F824F03F0312
:101750001D4404F03F0400272CB12246294609EB22
:10176000070000F077FE002002B0BDE8F087904649
:10177000C2E7DFF80480BFE74425000030B4054627
:10178000084611461A46DDE9023425B931B1029402
:1017900030BCFFF79FBF024830BC70470846FBE7EC
:1017A00080AFFFFF2DE9F0411746146886B01E4652
:1017B000E3008DF80F30630952688DF80E30630B2B
:1017C0008DF80D30630D8DF80C30D30003EB54739E
:1017D0008DF80B3004F03F045309372C8DF80A3094
:1017E0004FEA52334FEA525205468DF80820884698
:1017F00094BFC4F13802C4F17802CDE900178DF826
:1018000009300D4903460020FFF7B8FF0821434681
:101810002A4600970DEB0100FFF75CFF284605F113
:10182000200350F8042B984246F8042BF9D10020ED
:1018300006B0BDE8F08100BF6425000068220021E9
:1018400000F015BE0023C0E900331846704707B505
:1018500000F128030190009300F108030020FFF736
:101860008DFF03B05DF804FB02460B4600F1280132
:101870000830FFF797BF0000F0B593B00E4617464B
:101880000446202200210AA81D4600F0F0FD012098
:101890004FF0005201970290039204960590069231
:1018A000079508900992002C2FD1189C184BA40181
:1018B00021460AA80A9300F01AFC03990AA80C43CF
:1018C0000394069B04A943F020030693099B43F06D
:1018D0002003099300F0F7FB01A90AA800F0F3FB2D
:1018E00007A90AA800F0F9FB0AA800F009FC4FF0CC
:1018F00098435A6CD202FCD55B6D13F4702F0CBF69
:1019000000206FF06F0013B0F0BD6FF07100FAE7C8
:101910000004010310B500244A1EA1424FEA8202CE
:101920004FF0FF0108BF224640F8044B00F09FFD36
:10193000204610BD036840F204500133022B38BF2B
:101940000020704740F20250704710B5ADF50E7D93
:101950004FF40D72002001A900F086F940F2012435
:10196000002101A800F0B8F8A042F9D040F203230A
:10197000984220D19DF8043059070CD49DF80430CA
:101980009A071DD4DB0716D504998A9800F0DEF972
:1019900088B1002011E00B98FEF7F6FD0028EDD08D
:1019A0008A9800F091F90028E8D04FF40040FEF743
:1019B00099FD0028E2D140F205400DF50E7D10BDE5
:1019C0000022926A029992689142DBD98A9800F0CB
:1019D00099F90028EFD00A994FF40040FEF73EFD38
:1019E000E9E7FFF7B2BF000031B10A4B5A68824203
:1019F00005D80023C1E9003340F2014070470130AF
:101A000053F8302003EBC00043680A6000204B60AD
:101A1000704700BF0826000001221A7070470000BE
:101A200070B40C4611460C4A556885420DD90130F8
:101A300002EBC0067668E518B5420AD852F83000C5
:101A40001A46204470BC00F0B7B940F2014070BCA7
:101A5000704740F20240FAE70826000030B5CA6835
:101A60001B4B04469A420D46A3B019D1FEF79CFDCC
:101A7000D4F82432174A013352F83330D4F82C22E8
:101A80001344984208D38033984209D241F20D039F
:101A9000C4F8303223B030BD00F540409842F5D84C
:101AA0008023D4F82C1202AAD4F82402FFF7B8FF3E
:101AB00080232146009502AA04F12C00FFF7E0F8EC
:101AC000D4F82C32C4F830028033C4F82C32E1E769
:101AD00087020000082600001FB50023CDE900336F
:101AE000CDE90213D0F83032044693B9D0E98A32F6
:101AF0009A420ED26946FFF7B1FFD4F8300298B18E
:101B000041F2070240F20123904208BF184604B098
:101B100010BDA3785BB140F2022040F20323E278CB
:101B2000002A18BF1846F2E740F20120EFE740F222
:101B30000220ECE770B50D46002186B00DF10703D9
:101B400002931F4B04461646116028461C22CDE91D
:101B500003338DF80710059300F089FC94F8723078
:101B6000132B28D0D4F830322BBBD4E98A219142F0
:101B700007D2204602A9FFF771FF9DF80730002B1E
:101B8000ECD02278910744BF61683160D20709D553
:101B900004F1080204F1240152F8040B8A4245F8CA
:101BA000040BF9D14BB9237840F20640002B18BF43
:101BB000002006B070BD0023E3E70020F9E700BF76
:101BC000191A000070B40C4611460C4A556885423B
:101BD0000DD9013002EBC0067668E518B5420AD887
:101BE00052F830001A46204470BC00F0FBB840F2B6
:101BF000014070BC704740F20240FAE7082600003E
:101C0000074B5A68824207D9013003EBC002516882
:101C100053F8300000F00DB940F20140704700BFAA
:101C20000826000070B5054688B0C0B14FF44032B8
:101C300000236C46C0E900230A4B05F114061A780C
:101C40005B680272C360684600F09EF80FCC0FC656
:101C500094E80F0086E80F0005F114032B6108B02B
:101C600070BD00BF0826000037B50C46054611467A
:101C70002046FEF791FD48B969462846FFF7B4FEB5
:101C800020B9019BC4F82452C4F8283203B030BDF7
:101C900038B500F5DE7204460D46202300F5AA7122
:101CA0002C30FEF7B1FFD4F830321BB9D4E98A32B8
:101CB0009A4203D3A07800B1E07838BD2946204687
:101CC000FFF7CCFEEFE7000000B5ADF5137D4FF454
:101CD0000D7205A9FFF7C8FF78B904238DF81530F8
:101CE000074BCDE90100039001A905A80493FFF774
:101CF000CFFF0DF5137D5DF804FB0020F9E700BF71
:101D000087020000002300B59B6AADF5137D9B6838
:101D10008B4204D300200DF5137D5DF804FB4FF4D6
:101D20000D7205A9FFF7A0FF0028F3D102238DF85B
:101D30001530054BCDE90100039001A905A80493D6
:101D4000FFF7A6FFE7E700BF8702000000B5ADF58B
:101D5000137D4FF40D7205A9FFF786FF78B90123B3
:101D60008DF81530074B0190CDE90230049001A9A0
:101D700005A8FFF78DFF0DF5137D5DF804FB00202E
:101D8000F9E700BF6702000070B504460646044D3F
:101D90000FCD0FC495E80F0084E80F00304670BDEA
:101DA000E825000000207047024BD86900F00100D0
:101DB000704700BF00000340B2F5801F10B5134606
:101DC000044608460BD8B4F5801F08D82344B3F561
:101DD000801F04D8214600F03DFB002010BD40F2DA
:101DE0000240FBE7B2F5801F10B506D8B0F5801FA2
:101DF00003D88318B3F5801F0ED940F2024012E0D9
:101E0000C458013410D104339A42F9D88B0705D154
:101E10000223FEF7A7FD03E00023F5E7FEF7B9FD77
:101E20000028EAD0002010BD40F20340FBE702206A
:101E3000704738B541EA0003C3F30C030446CBB93D
:101E4000B1F5801F0FD8B0F5801F0CD80D18B5F56F
:101E5000801F08D8204604F50054FEF77CFDAC42F4
:101E600004D00028F6D140F2024038BD0028FAD054
:101E70000020FAE740F20440F7E700207047000036
:101E8000F0B5114A114C124E00F00105E3695F07ED
:101E900013D40DB9334213D103EA00078F4207D19F
:101EA0000B4A1A40002A14BF6FF001000020F0BD59
:101EB000013AEBD16FF00200F9E74FF0FF30F6E79F
:101EC0006FF00100F3E700BF809698000000034028
:101ED0000200010070B5134C6061E3695B071ED41A
:101EE0000E4656F8043B8D18A361AE420BD1042375
:101EF000002121202361FFF7C3FF58B9BDE87040DE
:101F00002120FFF7BDBF08210846FFF7B9FF10B138
:101F10000423236170BD56F8043BA361E5E74FF04D
:101F2000FF30F7E70000034038B541F67133012276
:101F30000C4C0021E569E3630B4B05F48035DA6056
:101F40000223606121202361FFF79AFF10B921204D
:101F5000FFF796FF0122054BDA600DB10023E36322
:101F600038BD00BF000003400010034000200340C4
:101F70002DE9F843154641F67132164B8946DF6963
:101F8000DA630122064603F58053DFF8508007F438
:101F90008037DA6055B9284601220F4BDA601FB14D
:101FA0000022A3F50053DA63BDE8F88306F5005478
:101FB00004EA0804A41BAC4228BF2C46494622462A
:101FC0003046FFF787FF0028E6D12644A1442D1BA9
:101FD000E0E700BF000003400020034000E0FFFFF7
:101FE0002DE9F04F06464FF4502501202A4CDFF82A
:101FF000B4C041F67137CCF8040044F826503025BF
:102000000024DFF8A4E0DFF8A49005FB06E5EC650A
:102010002C662C67214CDFF898A0D4F81C80E7636D
:10202000E76800FA06F60743E7604BB9E26818F480
:10203000803F22F00102E26000D0E363184628E00E
:1020400001F5005000EA0900401A984228BF1846DE
:102050006161D4F81CB087081BF0040F17D1013F51
:102060003F0147F060576F66AA66C5F86CA0CCF8D0
:102070002460DEF834703E42FBD0094F01447E6399
:102080000427CCF82860024427611B1ACDE74FF0E3
:10209000FF30BDE8F08F00BF004004400000034067
:1020A00000200440001004400000044000E0FFFF56
:1020B000180003404FF098435A6CD202FCD5586D7B
:1020C00000F470207047436813B9416070475B6843
:1020D0005A68012AFBD159607047836813B981603F
:1020E00070475B685A68012AFBD159607047C36921
:1020F000032B9FBF00EB83020133D160C3617047A4
:10210000C369042B15D84FF09842116CC902FCD555
:1021100004339B0013650168103B116041680C306B
:10212000116050F8041C034411604FF0984298422B
:1021300000D1704750F8041B1160F8E7F0B507466E
:102140000F4D10488DB0002B08BF05460E461446B3
:1021500000211C2205A800F08AF9012304A801A986
:102160003D4344F000540196049502930394FFF715
:10217000B4FFFFF7C5FFFFF79DFF0DB0F0BD00BF37
:1021800001000AFF010008FF054B5B69C3F38512DC
:10219000827003F03F021B0B42700370704700BF58
:1021A00000C0074000207047002070472422002113
:1021B00000F05DB970B515460E4624220021044694
:1021C00000F055F925F04003802B02D0B5F5807F53
:1021D00008D12046314640F8045BEA0800F03AF99D
:1021E000002070BD6FF01F00FBE700002DE9F041FB
:1021F00004681E4624F04003802B05468846174697
:1022000092B002D0B4F5807F43D11C2200210BA8EC
:1022100000F02DF9224A234B0121B8F1010F18BF1C
:1022200013460A932B1D0193E4081F4B44F00054FE
:1022300002910AA8039404970591069307960891C2
:1022400001A90993FFF73FFF04A90AA8FFF73BFF85
:1022500007A90AA8FFF741FF29680AA8C908FFF7DC
:1022600046FF10210AA8FFF742FFFFF79BFF98B92E
:102270000AA8FFF745FF4FF098435A6CD202FCD5ED
:102280005C6DFFF791FF04F47024204612B0BDE8A6
:10229000F0816FF07100F9E74FF0FF30F6E700BF13
:1022A0000001010400010004100000202DE9F04F9E
:1022B0009BB00746894698461646DDF894B072B141
:1022C00015683B6823F04002802A03D0B3F5807F75
:1022D00040F0A6800BEB0903002400930DE01546A7
:1022E000EFE795B1249A1BF80430525D0135534055
:1022F000269A05F00F05135501344C45F1D3002EF5
:1023000000F091800020356067E0A9EB040ABAF183
:102310000F0F57D91C22294613A800F0A8F8434BE9
:102320003A6812933B1D03930123D20842F00052F6
:10233000049305923E4A2699CDF818802AF00F0A98
:1023400007930892CDF824800A930B920BEB0402BA
:102350000C9221444AF000520D9312A80E920F9154
:1023600003A910931192FFF7AEFE06A912A8FFF77A
:10237000AAFE0CA912A8FFF7A6FE0FA912A8FFF744
:10238000ACFE09A912A8FFF7A8FE396812A8C9086F
:10239000FFF7ADFE514612A8FFF7A9FEFFF702FFB7
:1023A000C8B912A8FFF7ACFE4FF098435A6CD2029E
:1023B000FCD55B6D544403F470230193FFF7F4FEE6
:1023C000019B5BBB269B0BEB040A1C44009B9A45BC
:1023D00006D14C4691E74FF0FF301BB0BDE8F08FBF
:1023E0008DB9424601213846249BFFF7FFFE0028A5
:1023F000F3D108F1100212F8013D0133DBB2137082
:102400000BB99045F7D1249A1AF8013B525D01357A
:10241000534004F8013B05F00F05D7E71846DCE709
:102420006FF01F00D9E73046D7E700BF0303000471
:10243000100000200139024410B5904201D1002063
:1024400005E0037811F8014FA34201D0181B10BD1D
:102450000130F2E70A44431E914200D1704710B5A3
:1024600011F8014B914203F8014FF9D110BD02441C
:102470000346934200D1704703F8011BF9E70000BF
:10248000F8B500BFF8BC08BC9E467047F8B500BF61
:10249000F8BC08BC9E467047B814B6F1E0CFF3AD67
:1024A000B7DD25C9FA79B7130000000007B0CD5E8B
:1024B0000200000001000102302600000040000080
:1024C00000001000F0040100AF050000B30500009B
:1024D0005103000099070000C9070000A42500006F
:1024E000030800007908000000000000B9050000A2
:1024F000A905000013B779FAC925DDB7ADF3CFE020
:10250000F1B614B801020000000000002C26000003
:102510004000000001000102000000000000000077
:1025200000000000000000000000000000000000AB
:10253000000000000000000000000000000000009B
:10254000000000006A09E667BB67AE853C6EF37267
:10255000A54FF53A510E527F9B05688C1F83D9AB6E
:102560005BE0CD19800000000000000000000000CA
:10257000000000000000000000000000000000005B
:10258000000000000000000000000000000000004B
:10259000000000000000000000000000000000003B
:1025A0000000000000010000251C0000E9190000E7
:1025B000211A0000C51B0000011C00003519000095
:1025C0001519000045190000691C0000D91A000007
:1025D000351B0000A91D0000B91D0000E51D00000D
:1025E000331E00002F1E0000100203002800000010
:1025F0002800000000200000000010000000000083
:102600000400000000000040010000000100000084
:1026100000400800000007002426000008100020E9
:10262000020000005901000035010000FFFFFFFF1C
:10263000FFFFFFFFFFFFFFFFFFFFFFFFFFFFFFFFAA
:10264000FFFFFFFFFFFFFFFFFFFFFFFFFFFFFFFF9A
:10265000FFFFFFFFFFFFFFFFFFFFFFFFFFFFFFFF8A
:10266000FFFFFFFFFFFFFFFFFFFFFFFFFFFFFFFF7A
:10400000C00A0020094C0000054C0000054C0000CF
:1040100009770000054C0000054C0000054C00002D
:10402000054C0000054C0000054C0000054C00004C
:10403000054C000044BE0200D9470000054C0000BA
:10404000054C0000054C0000054C00000551000027
:10405000054C0000054C0000054C0000054C00001C
:10406000054C0000054C0000B1850000214A00000D
:104070002D4A0000054C0000054C0000054C0000D6
:10408000054C0000054C0000054C0000054C0000EC
:10409000054C0000054C0000054C0000054C0000DC
:1040A000054C00002556000005560000054C000098
:1040B000054C0000E99A0200054C0000B1A4020082
:1040C00055A4020051A402008D9C0200ADA4020080
:1040D00059A4020071A402005DA402006D840200D4
:1040E000F1A40200054C0000054C0000054C000046
:1040F000054C0000A56D0000054C0000054C0000BB
:10410000054C0000054C0000054C0000054C00006B
:10411000054C0000054C0000054C0000054C00005B
:10412000054C0000054C0000054C0000054C00004B
:10413000054C000010B5054C237833B9044B13B17E
:10414000044800E000BF0123237010BDCC0E002006
:104150000000000018EB020008B5034B1BB1034937
:10416000034800E000BF08BD00000000D00E0020A2
:1041700018EB0200A3F5803A704700BF174B002BE5
:1041800008BF134B9D46FFF7F5FF00218B460F46F6
:104190001348144A121A26F008FC0E4B002B00D0CC
:1041A00098470D4B002B00D09847002000210400B9
:1041B0000D000D48002802D00C4800E000BF26F09A
:1041C00089FB2000290000F0FBFA26F06FFB00BFFE
:1041D000000008000000000000000000C00A0020ED
:1041E000CC0E0020A42900200000000000000000E8
:1041F000002301220221032002F02AB9054BD3F843
:10420000A4305B0705D4044B1B7813B1012018F0D0
:1042100081BF704700C00350F00E00202DE9F04729
:104220000368B24A23F47F4323F007039342044612
:1042300088B000F0898110D8A2F5A022934200F046
:10424000F68002F58032934200F01181A2F5A0229F
:1042500093421DD008B0BDE8F087A54A934200F014
:10426000018202F1FD7202F58032934200F0A381D7
:10427000A2F1FE729342EDD100F022FC00F021FC8D
:104280009C4B9D49186808B0BDE8F04702F0D1BDCD
:10429000FF229A4B9A4D1A7000239A4F9A4E3A4633
:1042A0003146CDE90033284619F01AF800F008FC31
:1042B00000F007FC3B888F4C00932A883388934991
:1042C000206802F0B6FD0DF1170106A819F044F8B8
:1042D000054628B38E49206802F0ABFD8D49206861
:1042E00002F0A7FD00F0ECFB00F0EBFB8A4B8B4AE1
:1042F00000938B49B323206802F09BFD2B46894A2B
:104300008949206802F095FD284600F001FC8749A4
:10431000206802F08EFD7E49206802F08AFDFEE7EB
:1043200000F0CEFB00F0CDFB9DF818309DF81D206D
:1043300003939DF819307E4902939DF81A3001933A
:104340009DF81B30009320689DF81C3002F071FD31
:104350004FF6FF732021CDE900532A46A0230846DB
:1043600018F02AFF054628B36949206802F061FD6C
:104370006849206802F05DFD00F0A2FB00F0A1FB9F
:10438000654B664A00936649C323206802F051FDDD
:104390002B46644A6449206802F04BFD284600F031
:1043A000B7FB6249206802F044FD5949206802F0D9
:1043B00040FDFEE700F084FB00F083FB5D492068D0
:1043C00002F037FD0121084618F076FF054628B3B4
:1043D0004F49206802F02DFD4E49206802F029FD6A
:1043E00000F06EFB00F06DFB4B4B4C4A00934C49C8
:1043F000CB23206802F01DFD2B464A4A4A4920681B
:1044000002F017FD284600F083FB4849206802F0BF
:1044100010FD3F49206802F00CFDFEE700F050FB64
:1044200000F04FFB4449206802F003FD12E700252D
:1044300090F81690DFF80CA100F11708A9457FF657
:1044400009AF08EB05035B7818F80570023B012BF8
:1044500009D8A81C02225146404426F06FFA0646AD
:10446000002800F0258101373D44EDB2E6E7334DE9
:10447000204C2B7801332B7000F022FB00F021FB45
:104480002A782F49206802F0D4FC2B78002B3FF4C7
:10449000E1AE18F005FF054600283FF4DBAE1C49ED
:1044A000206802F0C6FC1B49206802F0C2FC00F044
:1044B00007FB00F006FB184B184A00931849ED2340
:1044C000206802F0B6FC2B46164A1749206802F015
:1044D000B0FC284600F01CFB1449206802F0A9FC3F
:1044E0000B49206802F0A5FCFEE700BFA0000A000F
:1044F000A0000601940F002022BB0200E80E00205D
:10450000000F0020040F0020020F002060BA0200FC
:104510000DBB02007ABA02000FBC02007FBA020093
:1045200088BA020094BA020097BA0200ACBA02003C
:10453000BDBA0200EABA02000FBB0200F00E002072
:1045400030BB02001EBC02007C4D00F0B9FA00F046
:10455000B8FA7B49286802F06CFC7A4A1378013378
:10456000DBB2012B13707FF475AE03F05BFE764B6C
:10457000764F1B68DFF82082C01A03F091FE04F129
:104580000B0638604B3400F09BFA00F09AFA16F8EC
:10459000012B4146286802F04CFCB442F3D100F0F4
:1045A0008FFA00F08EFA3A686949286808B0BDE8C9
:1045B000F04702F03EBC4368012B7FF44BAE5F4CEA
:1045C00000F07EFA00F07DFA6249206802F031FCCA
:1045D00003F028FE00225C4B5F4DC3E90001594BFC
:1045E0001A702B78FF2B3FF435AE00F069FA00F01B
:1045F00068FA2A785949206802F01BFC584B0522BA
:104600001B88112100932878564B18F027FE054689
:1046100000283FF41FAE5449206802F00AFC5349B9
:10462000206802F006FC00F04BFA00F04AFA504B0A
:10463000504A0093504940F21513206802F0F9FBEC
:104640002B464E4A4E49206802F0F3FB284600F004
:104650005FFA4C49206802F0ECFB4349206802F005
:10466000E8FBFEE7354D00F02BFA00F02AFA464948
:10467000286802F0DEFB384BA2791978914204BF1A
:10468000FF221A70414A1378013BDBB21370002BF2
:104690007FF4E0AD0121084618F00EFE02287FF4F9
:1046A000D9AD00F00DFA00F00CFA39492868EAE5B6
:1046B000224D00F005FA00F004FA3649286802F0AD
:1046C000B8FB3146314B1A78234B13440093A27A3E
:1046D000637AD4F8050043EA022363F30F013246FC
:1046E000012318F08DFD044600283FF4B3AD1E49A8
:1046F000286802F09EFB1D49286802F09AFB00F032
:10470000DFF900F0DEF91A4B1A4A00931A49D9234F
:10471000286802F08EFB2346184A1949286802F0DF
:1047200088FB204600F0F4F91649286802F081FB66
:104730000D49286802F07DFBFEE700BF940F0020C2
:104740005FBB0200F40E0020F80E0020EC0E0020EB
:1047500078BB02008DBB0200E80E0020B1BB020056
:10476000F20E0020C00A00200DBB02007ABA02003F
:104770000FBC02007FBA020088BA020094BA02009D
:1047800097BA0200ACBA0200D2BB0200F00E0020C1
:10479000E6BB020000BC020073BB020008B5074B79
:1047A00001681A68914208D1184600F03CFD0128C2
:1047B00003D1BDE8084018F0ADBC08BD0CBE020036
:1047C00008B503F012FFFFF713FD03F01BFFFFF71F
:1047D00015FD03F001F9F8E707F0DABE03F028BF92
:1047E0000120704700B5C3B007F0F4FD07F01DFECF
:1047F00048B1FFF7F5FF30B101A818F0D6FC10B9A9
:1048000001A8FFF70BFD43B05DF804FB00F0ABB966
:1048100008B50421002001F009FB0421062001F065
:1048200005FB0721084601F001FB0721082001F0E4
:10483000FDFA07211C2001F0F9FA0721242001F0DC
:10484000F5FA0721252001F0F1FA002008BD00004B
:1048500007B501A801F006FF9DF80530012B27D10F
:10486000244A936DDB0313D4536B23F4FF0323F427
:10487000FE4343F4BC1343F4A0635363136B23F46C
:10488000704343F440431363136B43F4E0631363D7
:104890009DF8043063B94FF000531B68164B1B683A
:1048A000164B1B68164B1B68164B1B68164B1B6878
:1048B000164AD2F8803043F00303C2F8803002F089
:1048C00095F900F05BF902F03DF902F0ADF902F064
:1048D00041F902F075F9FFF79BFF02F021F900F0B2
:1048E0004BF900F0DDFB00F0ADFE03B05DF804EB2A
:1048F00002F09CBF00C0005000400020008000205B
:1049000000C0002000000120004001200080005075
:1049100008B500F02DFD00F01FFE00F0C5F800F016
:10492000C9F8BDE8084000F05BB908B500F019F916
:1049300003F05EFB02F07AF902F0C4FA06F082F8A6
:1049400002F034FE04F0CEFE06F080FABDE8084026
:1049500000F058B808B502F0ABF802F0B9F802F070
:10496000CFF8BDE80840FFF739BF00F0ABB870479B
:104970007047FFF737BF704770B5114E92B035469C
:104980000BAC0FCD0FC495E80700032384E80700A4
:1049900003AD8DF8453006F11C030FCB07AC85E85D
:1049A0000F0006F12C030FCB84E80F00054B2146C6
:1049B00000930BAA2B46044802F0FEFC12B070BD17
:1049C000D0BD0200080F0020700F0020831E012BB5
:1049D0000AD8012908D80422094B1B69C3F34013E4
:1049E0000521002001F034BD0239012907D8012832
:1049F00005D8034B00221B69C3F34013F0E770474F
:104A000000C0035008B50449044802F0C3FFBDE8E4
:104A10000840FFF7B1BF00BF580B0020480F00202F
:104A2000014B186802F086BD700F0020FFF7F8BF39
:104A3000014B1A6A18681047700F00200120704758
:104A40000120704710B507F031FD0446FFF7F6FF6F
:104A5000002814BF2046002010BD38B503F0ACF884
:104A6000044607F031FD042817D002284FF0000556
:104A700008BF0124FFF7DCFF042810D0022808BF7C
:104A80000124FFF7DDFF04280BD0022808BF012412
:104A9000002D18BF0024204638BD0125EAE7012576
:104AA000EFE70024F7E70000014800F0B7BB00BFC4
:104AB0000CBE0200014800F0D9BC00BF24BE0200B9
:104AC00070477047012208B5074B1A700022074B48
:104AD0001A700422064B1A701F22064B1A7002F03D
:104AE0006FF9054B186008BD6B0B0020980F002074
:104AF0006C0B00206D0B0020940F0020024B03492B
:104B0000186802F096B900BF940F00203CBE020066
:104B100070B50C4C0C490646206802F08AF902F088
:104B20004FF90546206802F03FF93046FFF7E6FFEF
:104B3000284602F039F920680449BDE8704002F0C7
:104B400078B900BF940F00203EBE020040BE0200B4
:104B5000042208B511460123032001F079FC00204E
:104B600008BDFFF7F5BF042208B511460023032056
:104B700001F06EFC002008BDFFF748BE704770B51D
:104B80000024064625465B21082000F04DFC102C31
:104B900004F1010300D170BD012B14D0022B14D0FD
:104BA000032B14D0042B14D0052B04D16A1C2946E6
:104BB000D5B21C46E8E70D3C012C0CD9102B0CD0CB
:104BC000B21FD15CF5E70C21F3E7D121F1E7802199
:104BD000EFE70021EDE75A21EBE75D21E9E700006F
:104BE00007B5082000F014FC02238DF80030044BB8
:104BF00068460193FFF7C3FF03B05DF804FB00BFF5
:104C0000006A1810FEE7000008B500F02DF8124BFE
:104C100012498B4212D30020114B12498B4218D3F8
:104C2000FFF7ACFA186850F82240586840F8224064
:104C3000013298688242F5D30C33EAE70022F8E7A4
:104C40001C6844F8220001325C68A242F8D30833A1
:104C5000E4E70022F8E700BF20EB02002CEB0200A3
:104C60002CEB02002CEB02006FF00100104B114AFC
:104C700010B59A60D3F888200F4942F47002C3F847
:104C8000882001F50052106641F2FF705066022044
:104C9000C3F8D000BFF34F8FBFF36F8F08244FF4DA
:104CA00040330648C0F88041D36004600B6110BDFA
:104CB00000ED00E0004000000080004400E100E062
:104CC000014B1868704700BF740B0020014B18603F
:104CD000704700BF740B0020084B1B6F03F00703E5
:104CE000022B04D0032B05D0012B05D0FEE7044B8B
:104CF00018687047034BFBE703487047008000507B
:104D0000740B0020780B0020002D310108B5FFF74F
:104D1000E3FF054B1B6FC3F301330133B0FBF3F02B
:104D2000024B186008BD00BF00800050700B0020CF
:104D30000048704700B4C404014B1868704700BFB6
:104D4000780B0020054B1860054B1B6F03F0070321
:104D5000032B01D1FFF7DABF704700BF780B0020AB
:104D6000008000500020704700487047002D31013E
:104D7000174B9868C0F304400C2822D8DFE800F0F5
:104D8000092121212121071719211B1D1F0011486D
:104D900070479B6803F04073B3F1807F13D0B3F189
:104DA000007F12D00C4A002B08BF104670470B48FA
:104DB00070470B4870470B4870470B4870470B48CB
:104DC0007047002070470A4870470A48704700BF84
:104DD0000040015A405DC60000093D000024F40077
:104DE000C0EA210180BA8C010048E801005A620241
:104DF00080841E0040420F004FF4004070474FF483
:104E00007A707047014B1868704700BF7C0B002018
:104E1000BFF34F8F0549064BCA6802F4E0621343A3
:104E2000CB60BFF34F8F00BFFDE700BF00ED00E098
:104E30000400FA0500239B6AB3F5804F03D219687A
:104E4000064A914203D00023037083607047012219
:104E500002709A689B694260F7E700BF07B0CD5EB9
:104E600030B50024A36A87B0B3F5804F05460191A1
:104E70000FD2012303A88DF80C30CDE90444FFF7CD
:104E8000D9FF059B5B0504D5A36A28461B6C0199D5
:104E9000984707B030BD000073B5464B04461A78FA
:104EA0001AB102221A7002B070BDCDE900220028AA
:104EB000F9D001261E7001F024FA3F4D3F4B1860D7
:104EC00023F092F92B785BB900F0BCFB40B93C4869
:104ED00008233C4A3C4900681DF0BEFF00B92E7013
:104EE0003A4B5A68A2603A4A9A601A6E22605A6E29
:104EF00062601B6E5C043DD5364AD368D807FCD48B
:104F0000354B1A68531C3AD04FF480139340334A00
:104F100013660423314C23664FF48063236600F04C
:104F20003DF901300BD000F039F940F201139842FD
:104F30001FBF4FF4804323664FF4004323661023C2
:104F4000264C4FF0804223664FF400536846236698
:104F500001A922666366FFF783FF009B2366019B1E
:104F600063662B78002B9ED0164B1A6822665B680E
:104F7000636698E71A4AD368D907FCD4C0E7194B8F
:104F80001B78002BC5D1184B5A68144B12B94FF43B
:104F900080121A66154A526812B94FF400121A6646
:104FA000134B5B68002BB4D14FF480020B4B1A6695
:104FB000AFE700BFB20F0020B00F0020B40F0020F9
:104FC000880B0020A80F002000710800008000441A
:104FD00055CEAC0000000440800B0020009000443F
:104FE00000000450B10F00200080055000C00550A3
:104FF0000000065038B5214D04462B78012B02D015
:1050000001232B7038BD0028FCD000F0C7F8013018
:1050100009D000F0C3F840F20113984203D0184AB7
:10502000D368DB07FCD42268164B1A6662685A669E
:10503000A268D40744BF00229A60134B1A68013259
:1050400013D1124A127882B911494968C80748BF7A
:105050001A60104A5268D10744BF01221A600E4AF2
:105060005268D20744BF02221A6023F0D5F80B4BD6
:10507000186801F04CF90023C3E700BFB20F00200D
:105080000000044000800044800B0020B10F00208D
:105090000080055000C0055000000650B40F0020ED
:1050A00070B50024A36AB3F5804F1ED2104E33783A
:1050B00013F0FD0517D10F48FFF7EEFE08214FF45E
:1050C00080330D4A0D48C2F88011C36011600C4A4C
:1050D0001361AB6ADB69984704460648FFF78AFF0D
:1050E0000CB901233370204670BD4FF48174FAE788
:1050F000B10F00209C0F002000E100E000A0004460
:105100000090004413B51F4B1B7803B9FEE7002342
:105110001D4CCDE900336A4608231C4920681DF068
:105120009BFEF0B91A4AD2F84031D2F840211F2B29
:105130004FF0010310D9203A9340019A1343019391
:1051400008236A46114920681DF03CFE4FF00053C9
:10515000104A1A60FFF75CFE9340009A13430093D5
:10516000EEE70D4B9842F1D1094AD2F84031D2F81E
:1051700040211F2B4FF0010302D9203A9340DEE774
:105180009340ECE7B20F0020880B0020007108006C
:10519000008000440B020FF00BE000F01FB500236D
:1051A0009A6AB2F5804F04D340F2011005B05DF861
:1051B00004FB126BB2F5804FF6D2012201A8CDE9B3
:1051C00002338DF80420FFF735FE039BDB03EBD59C
:1051D000029B1A0EE8D0012A03D1C3F307430A2B1E
:1051E000E2D900239B6A1B6B1B6C9847DEE7002308
:1051F0000360704703680B600160704705490A68E7
:105200001318054883428CBF4FF0FF320B601046E5
:10521000704700BF840B002000800120436803B169
:10522000184722207047436903B11847FF20704791
:1052300010B40A681378022B14D014203023147988
:1052400013FB040303F1A04303F570331B6850798B
:10525000C340DB4303F00103137008465DF8044BC1
:10526000FFF79CBA5DF8044B7047000037B504683F
:105270000023012261790546207901F0E9F8142222
:105280003023217913FB012303F1A04303F570338D
:105290001B686279D340DB4303F001032370A379D9
:1052A000022B0ED100F058F92A460749607900F028
:1052B0007DF90123024661792079CDE9003301F0BF
:1052C00083F8002003B030BD315200000368187825
:1052D000704702681378022B27D0142130231079ED
:1052E00013FB001303F1A04303F5703351791B68DE
:1052F000CB40917903F00103012912D1508843EA90
:1053000040034FF6E07063F03F039BB2834202D14B
:105310001170538070474FF6DF718B42F9D1002135
:10532000F6E711B983F001031370704703681A7828
:10533000022A03D100225A80FFF798BF704713B5A5
:1053400004682378022B10D0A379022B0BD1002103
:10535000607900F019F90023627920791146CDE9CE
:10536000003301F031F80223237002B010BD0000B9
:1053700008B5042201230321002001F069F8002070
:1053800001F021F801221B4B0521C3F844240C2015
:1053900000F04CFD0C2000F0F7FB174B00F5D5207A
:1053A000D3F8F02000F2FC4042F00102C3F8F020F4
:1053B000D3F8FC2042F08072C3F8FC200F4AA3F51A
:1053C0005D431A600E4B0222B0FBF3F00D4B013827
:1053D0001861C3F8F0204FF48072C3F804234FF033
:1053E0006043094A0020C3F8B02F084AC3F8802E52
:1053F00008BD00BF00D0035000ED00E0FF030040F7
:10540000F8590D00000004E055CEACC509000100BC
:105410004FF060420123D2F8001E03FA00F0084367
:10542000C2F8000E002070474FF06043D3F8802E82
:1054300030B5D20715D501240B4D8440D5F8FC209A
:1054400042F08072C5F8FC20D3F8002E2243C3F846
:10545000002E53F82020002AF0D003F8201000205E
:1054600030BD1120FCE700BF00ED00E0D0E90003F3
:10547000184708B583784178B3FA83F3042200789B
:105480005B0900F0E5FF002008BD000010B5012217
:1054900043780178847830209A40054B00FB013333
:1054A0001CB942F210015A5010BD41F21001FAE746
:1054B00000C0035010B50122437801788478302071
:1054C0009A40054B00FB01331CB941F210015A50C0
:1054D00010BD42F21001FAE700C0035001224178EA
:1054E00003788A4030214B4343F2100103F1A0437B
:1054F00003F570335A50704730231021024600786C
:1055000013FB001303F1A04303F5703350781B68BD
:10551000C34003F0010093780BB980F0010070479D
:1055200070B5044601250B4E04B970BD94FAA4F081
:10553000B0FA80F005FA00F306EB001224EA030447
:105540005368002BF0D0117B11B191689847EBE7BD
:105550009847E9E7B80F002008B5192000F0DAFEF7
:1055600028B14FF00072074BC3F880211A601A204F
:1055700000F0D0FE28B14FF08062024BC3F88021CA
:105580001A6008BD00E100E038B505460C4600F0A1
:10559000B8FE0022044B03EB05135C601A73BDE8F0
:1055A000384000F0B4BE00BFB80F0020F8B5054683
:1055B0000F46164600F0A5FE104B05F0FC02D3F88E
:1055C00024140023EC1804F00304144321FA04FC0F
:1055D0001CF0010F07D00133042BF3D1FF2400F09E
:1055E00096FE2046F8BDFF2CF9D00122044B03EBB8
:1055F0000413C3E901761A73F1E700BF00C003503A
:10560000B80F0020064BD3F82404D3F8202403F568
:105610000053104000F05530C3F82004FFF780BF5E
:1056200000C00350064BD3F82404D3F8202403F51C
:105630000053104000F0AA30C3F82004FFF770BFF9
:1056400000C00350024B1968024B18681DF0E4BA01
:105650008C0B0020880B00207047000037B59200AB
:1056600004460D46019226F0F3F9431C0BD060B9B5
:1056700029462046019A25F061F90028044808BF10
:10568000002003B030BD0348FBE70348F9E700BF43
:1056900010E000F021E000F024E000F013B5044633
:1056A00001A800F0DFFF9DF80630012223804FF4AF
:1056B000807300206380054B9B680A3303F01F034F
:1056C00002FA03F3636002B010BD00BF0080E00F78
:1056D00000F00CBF08B500F0FDFE002008BD10B5BD
:1056E000044644EA010313F00303084609D1934238
:1056F00001D1002010BD54F8231040F823100133CD
:10570000F5E72146920025F029F9F2E710B50446A5
:1057100026F096F9431C15D0B0B90C4B20469B6877
:105720000A3303F01F020123934023F003032344B1
:10573000984201D1002010BD50F8042B0132F7D05F
:105740000348F8E70348F6E70348F4E70080E00F72
:105750000EE000F021E000F024E000F008B500F0D9
:10576000C9FD014B186008BD48180020014B18689E
:1057700000F0C4BD481800200A460139014401F078
:1057800071BF000041F6713310B5104C104AA042B1
:105790008CBF4FF480140024D169D363936801F463
:1057A000803123F44013234393600A4B98420A4B01
:1057B000D3F818228CBF42F0020222F00202C3F892
:1057C000182211B10022024BDA6310BD005A6202A6
:1057D0000000035080F0FA0200C007502E4B9842A0
:1057E0004AD022D82D4B984240D014D82C4B984206
:1057F00039D00AD82B4B984232D02B4B98422FD01D
:105800002A4B98422CD000207047294B9842FAD15D
:10581000284B186F7047284B98422AD0274B984244
:10582000F1D1244BD3F880007047254B98422BD000
:1058300009D8244B984223D0234B9842E3D11D4BE7
:10584000D3F88C007047214B984221D003F57403A4
:1058500003F510539842D6D1164BD3F898007047F1
:10586000144B986D7047134B586E7047114B586F1F
:105870007047104B986F70470E4BD3F884007047F9
:105880000C4BD3F8880070470A4BD3F89000704750
:10589000084BD3F8940070470048E8010024F40056
:1058A000C0CF6A0080841E0000093D0040420F0006
:1058B000405DC6000080E00FC0EA210180BA8C0183
:1058C000007E560380D54302006CDC020090D003BA
:1058D00008B5FFF72DFABDE808400021FFF752BFD9
:1058E00038B5124B0546D3F820310C4603F00703B8
:1058F000013B032B17D8DFE803F0020A0E12FFF773
:10590000DFF9042305B1286004B1236038BDFFF737
:1059100013FA0323F6E7FFF72BFA0523F2E7FFF765
:1059200023FA0223EEE700231846EBE7008000503D
:1059300037B50C460021124A0191D2F88021054664
:1059400002F00302022A0ED0032A11D0012A14D138
:1059500001A8FFF7C5FF0D230DB1019A2A6004B11C
:10596000236003B030BDFFF703FA05230190F3E78E
:10597000FFF7FAF902230190EEE70B46ECE700BFD0
:105980000080005038B5104B0546D3F840310C4626
:1059900003F00303022B0BD0032B0DD0012B0FD1EF
:1059A000FFF72AFA082305B1286004B1236038BD47
:1059B000FFF728FA0723F6E7FFF721FA0923F2E7B2
:1059C00000231846EFE700BF0080005038B5104BA9
:1059D0000546D3F860310C4603F00303022B0BD0CD
:1059E000032B0DD0012B0FD1FFF706FA082305B1C9
:1059F000286004B1236038BDFFF704FA0723F6E7F7
:105A0000FFF7FDF90923F2E700231846EFE700BF8F
:105A10000080005038B5134B0546D3F800320C46D1
:105A200003F00703013B032B18D8DFE803F0020A59
:105A30000E12FFF7E1F9082305B1286004B12360D5
:105A400038BDFFF7DFF90723F6E7FFF7D8F9092399
:105A5000F2E7FFF75BF90C23800AEDE70023184615
:105A6000EAE700BF0080005038B5134B0546D3F875
:105A700008320C4603F00703013B032B18D8DFE87C
:105A800003F0020A0E12FFF7B7F9082305B12860E8
:105A900004B1236038BDFFF7B5F90723F6E7FFF738
:105AA000AEF90923F2E7FFF731F90C23800AEDE79D
:105AB00000231846EAE700BF0080005038B5104BBD
:105AC0000546D3F840320C4603F00303022B0BD0FB
:105AD000032B0DD0012B0FD1FFF78EF9082305B151
:105AE000286004B1236038BDFFF78CF90723F6E77F
:105AF000FFF785F90923F2E700231846EFE700BF17
:105B00000080005038B5104B0546D3F800310C46E4
:105B100003F00303022B0BD0032B0DD0012B0FD16D
:105B2000FFF70AF9032305B1286004B1236038BDEB
:105B3000FFF768F90723F6E7FFF714F90623F2E702
:105B400001230020EFE700BF00800050032814D09D
:105B500005D8012805D0022809D0002005E00F282B
:105B6000FBD1084B186FC0F3013001307047054B73
:105B7000D3F89000C0F30460F7E7024B186FC0F34E
:105B80008020F2E7008000501FB5002301932528F4
:105B900017D8DFE800F0131A1D262B353A50555A56
:105BA0005F646977161A3F1616551A262B26351A82
:105BB0005026773A3A3A3A2626265A5FFFF78CF86B
:105BC0000190019805B05DF804FBFFF79FF8F7E737
:105BD000FFF782F802460220FFF7B8FFB2FBF0F0B1
:105BE000EEE7FFF793F802460320F5E7FFF78EF89C
:105BF00002460320FFF7AAFFB2FBF0F04008DFE700
:105C0000002101A8FFF794FEDBE7002101A8FFF7C0
:105C100067FED6E702934FF0E0231B695B0705D5CB
:105C2000FFF774F80290029B0193CAE703A902A848
:105C3000FFF7A8FEF7E7002101A8FFF7A3FEC0E7E2
:105C4000002101A8FFF7C2FEBBE7002101A8FFF772
:105C5000E1FEB6E7002101A8FFF706FFB1E700214A
:105C600001A8FFF74FFFACE7094BD3F8803003F0F2
:105C70000303022BA9D0032B01D00020A0E7FFF7DC
:105C800077F89DE7002101A8FFF718FF99E700BF0B
:105C90000080005008B50120FFF776FFBDE80840FE
:105CA000034988428CBF02210121032000F002B881
:105CB00080F0FA02032810B50C4627D004D801283A
:105CC00004D0022817D010BD0F28FCD1FFF700FE2A
:105CD00000F028F8124B013C196F21F4405141EAC1
:105CE00004341C67FFF712F80021FFF74BFDBDE8F5
:105CF0001040FFF7CFBF0A4B013CD3F8901021F0C2
:105D0000F85141EA0464C3F89040DCE7044B013CDD
:105D1000196F21F4806141EA84241C67D3E700BF36
:105D20000080005002210320FFF7C4BF1FB50023ED
:105D30000193252821D8DFE800F013202020202A15
:105D40002F454A4F54595E7120203420204A20208C
:105D500020202A204520712F2F2F2F2020204F5424
:105D6000314B1B6F03F00703013B032B05D8DFE822
:105D700003F00C02080A04230193019805B05DF8B2
:105D800004FB0323F8E70623F6E70223F4E70020E9
:105D900001A9FFF7CDFDF0E7002001A9FFF7A0FD65
:105DA000EBE702934FF0E0231B695B0705D5FEF795
:105DB000ADFF0B230393039BDEE703A902A8FFF7C4
:105DC000E1FDF8E7002001A9FFF7DCFDD5E70020A1
:105DD00001A9FFF7FBFDD0E7002001A9FFF71AFE9C
:105DE000CBE7002001A9FFF73FFEC6E7002001A98D
:105DF000FFF788FEC1E70C4BD3F8803003F00303B4
:105E0000022B03D0032B05D00023B5E7FEF77EFF5E
:105E10000B23B1E7FEF7ACFF0523ADE7002001A996
:105E2000FFF74CFEA9E700BF0080005070B50C469C
:105E3000252848D8DFE810F0260047004700470033
:105E400047005B006B009B00AB00BB00CB00DB009E
:105E5000EB00FC00470047007B0047004700AB0019
:105E600047004700470047005B0047009B00470092
:105E7000FC006B006B006B006B00470047004700A5
:105E8000BB00CB008B1E042B2ED8DFE803F02A1DAD
:105E9000032D270000250226FFF71AFDFFF742FF1A
:105EA0006B4A136F23F0070333431367FEF72EFF8C
:105EB0000021FFF767FCFFF7EDFE25B9032C02D1A7
:105EC0000122644B9A6270BD0122634B0E469D6AAB
:105ED00003F58053C5F340059A62DDE700250426EB
:105EE000DAE700250126D7E700252E46D4E78C1EE9
:105EF0000B2C8CBF0021594B554A98BF195DD2F825
:105F0000803123F003030B43C2F88031DBE78C1EA2
:105F1000032C8CBF0021524B4D4A98BF195DD2F81B
:105F2000203123F007030B43C2F82031CBE70B29C4
:105F300012D00ED8CC1F022CC5D84A4A536A43F05F
:105F4000010353624FF0E022136923F0040313614D
:105F5000B9E70E29B7D1F0E7424A536A23F00103AB
:105F600053624FF0E022136943F00403EFE7CC1FC4
:105F7000022C8CBF00213C4B354A98BF195DD2F8EA
:105F8000403123F003030B43C2F840319BE7CC1FA1
:105F9000022C8CBF0021354B2D4A98BF195DD2F8D9
:105FA000603123F003030B43C2F860318BE7CC1F51
:105FB000052C8CBF00212E4B254A98BF195DD2F8C5
:105FC000003223F007030B43C2F800327BE7CC1FFB
:105FD000052C8CBF0021274B1D4A98BF195DD2F8B4
:105FE000083223F007030B43C2F808326BE7CC1EDC
:105FF000042C8CBF0021204B154A98BF195DD2F8A4
:10600000003123F003030B43C2F800315BE705299D
:106010000CD00B2914BF002102210D4AD2F8803088
:1060200023F003030B43C2F880304CE70321F4E76D
:10603000CC1F022C8CBF0021104B054A98BF195D64
:10604000D2F8403223F003030B43C2F840323AE760
:106050000080005000E0005000C00050B8BE0200B8
:10606000C4BE020000C00750C8BE0200C8BE020085
:10607000CBBE0200CBBE0200D1BE0200C8BE0200F1
:1060800008B5FFF753FE07280ABF024B4FF6FF7013
:10609000188808BDAC0B002038B50546FFF79EFBFD
:1060A000214B04465A68012A04D120494A609A6962
:1060B0009207FCD10020FFF739FE042803D1FFF737
:1060C00007FCFFF72FFE1A4A24F04073954221D0B7
:1060D000184A954221D0184AD16811F0060FFBD119
:1060E00090689360916803F4F81301F4F8118B42FF
:1060F00016D12846FEF7EAFD0020FFF717FE042818
:1061000010D1FEF703FE0021FFF73CFBBDE838404D
:10611000FFF7C0BD43F00073DDE743F08073DAE7BB
:106120009060E9E738BD00BF00C0015000E00150B9
:1061300040420F0080841E000000015070B50446EC
:106140000020FFF7F3FD03287CD045F60E03022163
:10615000414AC2F88030414B9962012103F58053D6
:106160009962936DD903FCD4D4E900131B0543EA6B
:106170000163E17B94F822500B43217B94F8236068
:1061800043EA0143617B43EA0133A17B43EA811384
:1061900013619169D4E904031B0643EA806301F0AB
:1061A00000410B43A17EE07E0B43217E43EA014385
:1061B000617E43EA01239361136AE26923F00D03D0
:1061C000002A0CBF0021082143EA020343EA8003AE
:1061D000214A43EA0103136294F820304FEA431343
:1061E00031D1906A94F8211020F0330043EA011372
:1061F000034343F001039362194B916D33EA0101AC
:10620000FBD10221154B9962936D5B00FCD41069A0
:10621000A36820F4700040EA035010614FF0004280
:106220000E4B9A611DB9022203F580539A6216B98A
:1062300001220C4B9A6294F824301BB1064B0A4A97
:10624000C3F8802070BD916A21F0330131430B43C4
:1062500043EA45039362EEE700C0005000D00050CF
:106260000300014000E00050F1A7FFFF014B93F94C
:1062700000007047FC180020F0B5D0E901434FF44E
:10628000D1560227164A417805785662154E4F2995
:1062900077604FF0010728BF4F2106F580567760E1
:1062A0001669F603FCD441EA052151611B01417BCB
:1062B00043EA04230B43017B43EA41039360C37B1E
:1062C000817B1B0143EA4113417C0B43017C43EA80
:1062D00041035360837C13B16FF4D1535362F0BD1B
:1062E0000000025000100250014B1880704700BFA0
:1062F000AC0B0020EFF3108072B6704700B962B6A5
:106300007047EFF31180302383F31188704780F3D7
:1063100011887047054B420953F8223000F01F00E6
:1063200023FA00F0C04300F00100704700E100E0F4
:10633000704770470A4A10B51369044643F00403D6
:10634000136101F0D1FCFFF7F3FF30BFFFF7F1FF5E
:1063500001F0DEFC1CB9BDE81040FEF7D7BC10BD53
:1063600000ED00E0084A10B51369044643F0040349
:10637000136101F0B9FC30BF01F0CAFC1CB9BDE8E3
:106380001040FEF7C3BC10BD00ED00E07047704741
:10639000034A0179D36E23F030030B43D366704771
:1063A0000040005070B5054614460E46FFF7A2FFA8
:1063B000296881EA040202EA06044C402C60BDE828
:1063C0007040FFF79BBF7047072AF7B50D4614468C
:1063D0001F460FD803219600B14000FA06F2154877
:1063E0000191FFF7DFFF05F0030201991248B24067
:1063F000FFF7D8FF114B12499DF82000002F08BF6E
:106400001946012303FA04F40C600E4B0E490028D0
:1064100008BF0B461C600D4B9DF82400C3F82044B8
:106420001031A3F6DC33002808BF0B461C6003B014
:10643000F0BD00BF00C4035008C4035010E4035073
:1064400010D4035014D4035014E4035000E003505C
:10645000F8B504460D461F4616464AB101238B4047
:106460003021194A01FB0022FFB141F210015350C3
:1064700004EB4403072D4FF00F014FEA031317D825
:10648000A80006FA00F2814010481844FFF78AFF7E
:1064900056B9012130230C4801FA05F503FB04002D
:1064A00077B141F21003C550F8BD42F21001DEE7AA
:1064B000A5F10800800006FA00F281400448E4E7F4
:1064C00042F21003EFE700BF00C0035004C00350C6
:1064D0000CC0035041F67132034BDA63012203F51D
:1064E0000053DA60704700BF0000035041F671327C
:1064F0000121044BDA6303F50052D1600022DA6314
:10650000704700BF000003504FF0B0435A6812B10B
:106510009A6A002AFAD17047CB784A7810B55B01A5
:106520000C7843EA82030A79234343EA02130C22DC
:10653000424302F1B0421363012C02BF8A78024B3E
:1065400043F8202010BD00BFD080035008B54FF0A5
:10655000B0435A6802B960B15B680BB1FFF7D4FF72
:106560004FF0B04130B10120074B5860FFF7CCFF2E
:10657000C86008BDFFF7C8FF0223CB60FFF7C4FF68
:106580000122024B5A60F4E7001000580020005826
:106590004FF0B0435B6870B50BB1FFF7B5FF012159
:1065A000104B4578596083780679002BC37814BF67
:1065B00002240024002B14BF042200224379DB00B4
:1065C00043EA06132B43234313434FF0B042936037
:1065D000054B59600378002B14BF0B460223D36090
:1065E00070BD00BF0020005800100058436813B968
:1065F000416070475B685A68012AFBD15960704757
:10660000836813B9816070475B685A68012AFBD1BF
:1066100059607047C369032B9FBF00EB83020133AE
:10662000D160C3617047C369042B15D84FF09842FD
:10663000116CC902FCD504339B0013650168103B43
:10664000116041680C30116050F8041C0344116063
:106650004FF09842984200D1704750F8041B1160E7
:10666000F8E70000054B5B69C3F38512827003F005
:106670003F021B0B42700370704700BF00C0075001
:1066800040F6B732064B5B689BB293429FBF4FF414
:106690007A72B3FBF2F3034AD05C88BF00207047E4
:1066A0000080E00FD6BE02000D4B984208D1A3F542
:1066B0000033C3F88411C36D43F08003C365704792
:1066C000084B984204D1A3F51033C3F89411F2E7B4
:1066D000054B984204BFA3F52033C3F8A411EAE7A1
:1066E0000080055000C005500000065070B50546FA
:1066F00016461C4619B90320FFF746FA0146402CFE
:106700001BD003D8DCB1202C1BD070BD602CFCD179
:10671000042303FB06F2560806EB4113B3FBF2F326
:10672000094A203B02EAC303AA6822F06002AA6079
:10673000AA681443AC60EB61E7E70623E9E710239E
:10674000E7E70823E5E700BFF8FF7F00012200F537
:1067500080535A60CB43934003F00A034361416185
:1067600011B900F50050426070470000012200F5A9
:10677000805310B55A6040F6AA6341F205024361A6
:10678000002312498360C365C26000F500520361B3
:10679000C361C36491640E498365884206D00D4C81
:1067A000A04203D004F58044A0420BD18842036587
:1067B00006D0084B984203D003F58043984201D19C
:1067C000002343650123536010BD00BFFFFF01009C
:1067D0000080055000C0055070B50D46FFF7C6FF9C
:1067E000012300F580567360AB7C04461BB18368BF
:1067F00043F080438360EB7C1BB12046297DFFF78B
:1068000053FF2A8A6B7B20461343EA891343E360D4
:106810002B7BD5E90112FFF769FF6B7D1BB1A368E4
:1068200043F48033A360AB7D1BB1A36843F4004302
:10683000A360EB7D2A7E1B07120502F4E00203F041
:10684000E0431343A3656A7E931E012B214B20D89E
:106850009C421AD003F580439C4218D003F5804334
:106860009C420CBF02234FF0FF3341F2AC51022097
:106870005B0103F1A04303F570335850032A23D181
:106880000423F3652B78636170BD0023EDE70123DA
:10689000EBE79C4214D0104B9C4213D003F580438D
:1068A0009C420CBF02234FF0FF3342F2AC51022056
:1068B0005B0103F1A04303F570335850012ADEE772
:1068C0000023F2E70123F0E7042204F50053DA6520
:1068D000D8E700BF0080055000C0055083691B0643
:1068E000FCD5406AC0B2704783695B06FCD5C163C2
:1068F0007047000038B50446054D1DF0F4FA0FCC82
:106900000FC594E80F0085E80F00002038BD00BFD8
:106910000019002047F6FF739A42F0B563D00329AF
:1069200063D8334BCF0003EBC10013F831108478E8
:10693000012913D10025C3781B1B9D4202D3E01807
:10694000C0B2F0BD591B4668A3EB510136F9116086
:106950009642D4BF0D4601F1FF33EEE740680028B0
:10696000EFD0B0F90010914204DBB0F9021091426F
:10697000B8BF114682883B44FF2A19BFC822282687
:10698000B0F90620B0F90860A2EB01020CBF0125A6
:10699000002592FBF6F25F782A447B1E934228BFC3
:1069A00013464FF47A7E00EBC305AE68EA88AC4626
:1069B00011FB02621E4622EAE272013302F5FA720C
:1069C0009F42B2FBFEF204D9BCF80CC008359445D6
:1069D000EBD200EBC6008088904228BF1046A04250
:1069E00038BF2046ACE7FF20ABE70020A9E700BF97
:1069F000001900200329F0B553D82B4800EBC1043F
:106A000010F83110636801290FD1E078A478904222
:106A100094BFC4EB0001C4EB0201001BCAB2824266
:106A2000C8BF002233F91200F0BD002B39D0A17885
:106A3000914202D3B3F90200F6E7E178B3F900001E
:106A40009142F1D999886478A1F1FF06013C714225
:106A500003F10405E4B2714103F10C071FFA82FC53
:106A6000CEB2B44216D805EBC1014FF47A756A4331
:106A7000B1F902404968521A04EBD47102EB610289
:106A800092FBF4F29042CFDBB3F902009042CBDCF0
:106A900010B2C9E737F831E04E1CE645E3D3314682
:106AA000DEE70248C0E700BF001900200080FFFFBA
:106AB00008B50448FFF71EFFBDE8084001201DF09F
:106AC0002DBA00BFDCBE020000487047AE0B0020AC
:106AD0007FB50222084B0949CDE901234FF000732D
:106AE000CDE90313052301A94FF0FF3005931DF0F5
:106AF00079FA07B05DF804FB006A18000002040090
:106B0000002307B5CDE90033012369464FF0FF307C
:106B10008DF802301DF0ABF903B05DF804FB000006
:106B200013B50024064A6846536F43F001035367C8
:106B300000948DF80440FFF72BFC204602B010BDF6
:106B40000040005008B50248FFF7A6FA002008BD33
:106B500000B4C40430B58BB06C46154D0FCD0FC4D6
:106B60000FCD0FC495E8030084E80300114BD3F860
:106B70004C21120314D4D3F85041E4B28DF81940DB
:106B8000FFF774FB204480F308008DF818000A48D2
:106B9000FEF7D8F86846FFF7D1FA00200BB030BDF9
:106BA000064B1C884FF6FF739C4208BF8524E5E71F
:106BB000C8BF02000080E00F00F049020001E00FB2
:106BC00030B5094D87B001AC0FCD0FC42B6801A8BB
:106BD000236025238DF80530FFF74EFB6420FFF777
:106BE00083FB002007B030BDF0BF02006FF004024D
:106BF000502110B50A480B4C12F0800FD3B21BBFC6
:106C000003F00F03043BA3181B1802F101020CBF91
:106C100083F8001319763D2AEED1002010BD00BF85
:106C200000ED00E000E100E000F078B838B501F0D8
:106C3000DFF90446E0B901F00FFB4FF4167343434C
:106C40000C4803F5742303F23F23B3FBF0F30A4A25
:106C50000A4913600A220D680948013A12F0FF023E
:106C600040F8043BF9D103EBC3022B4413440B60FF
:106C7000204638BD40420F005C1900202819002032
:106C80002C190020012208B5034B1A7001F0BEFA3E
:106C9000024B186008BD00BF2419002058190020BD
:106CA000F8B5144C237823B301F0B0FA124B134D0E
:106CB0001B68134EC01A012838BF0120114B124F18
:106CC00018602B7856F8232046F82300111A3A68EA
:106CD0000E48521A0A213A600932B2FBF1F201332E
:106CE000DBB20260B3FBF1F201FB12332B70002325
:106CF0002370F8BD241900205819002054190020D1
:106D00002C19002020190020281900205C190020CF
:106D1000014B1868704700BF5C1900202023094907
:106D2000094A81F82D33094B03F500504267026789
:106D30004FF40050C1F88401486003F580535A674E
:106D4000704700BF00E100E0010000A000C000505B
:106D5000044B9A6DD20702D40028FAD17047012063
:106D6000704700BF00C000500C4B10B51C6FE2070D
:106D700007D5012203F500531A67FFF791FF00F0D2
:106D80002BFF14F000521CBF054B1A67002CBEBF2E
:106D90004FF00042024B1A6710BD00BF00C0005008
:106DA00000E00050FFF7E0BF10B50446FFF7A2FA7D
:106DB000024B1C60FFF7A2FA002010BD60190020F2
:106DC00010B5FFF797FA034B1C68FFF797FA2046B8
:106DD00010BD00BF6019002007B530B9CDE9001221
:106DE000FFF7EEFFDDE9001230B1436823B1006820
:106DF00003B05DF804EB1847232003B05DF804FBF3
:106E000030B51C4685B058B9CDE90012FFF7D8FF60
:106E1000DDE9001204B903AC20B9232005B030BD70
:106E200003B903AC8568002DF7D023460068A84756
:106E3000F4E70EB477B507AB53F8046B054601933E
:106E4000B0B9FFF7BDFF044605463046019923F06F
:106E50003DFFAC42064602D02046FFF7A5FF002EBC
:106E6000D4BF3720002003B0BDE8704003B07047A6
:106E7000FFF7A6FF85420446E7D02846FFF794FFB8
:106E8000E3E700207047FEE74FF4005300204B601B
:106E90007047012070470020704707B5002001AB04
:106EA0000190FFF7ADFF0198002808BF4FF0FF30B9
:106EB00003B05DF804FB10B514460020FFF78CFF0B
:106EC000204610BD034B0222186800238068194633
:106ED00023F038BEC40C002090F82A3001223BB1C8
:106EE00090F82E30022B03D180F82E2018467047E0
:106EF0001346FBE780F82410704790F82400704791
:106F000090F82B0070470000002808DB012342099D
:106F100000F01F0003FA00F0014B43F82200704715
:106F200000E100E0002809DB0122430900F01F0016
:106F300002FA00F0024A603342F82300704700BFB3
:106F400000E100E0F8B504460D4690F82B3081B121
:106F500073B990F82C60FFF7CDF905460121304652
:106F600000F094FC2846FFF7C9F9012384F82B3080
:106F7000F8BD002BFCD090F82C70FFF7BBF906464B
:106F80002946384600F082FC3046FFF7B7F984F80E
:106F90002B50EDE770B504460568FFF711FF8442FA
:106FA00002D10020FFF700FF95F92800FFF7BAFF94
:106FB00095F92830002B0DDB01215A0903F01F033E
:106FC00001FA03F31449203241F82230BFF34F8F06
:106FD000BFF36F8F95F92900FFF7A4FF95F92930CA
:106FE000002B0DDB01215A0903F01F0301FA03F303
:106FF0000949203241F82230BFF34F8FBFF36F8F22
:1070000000232846C4E90033C4E90433A360EB68D5
:10701000BDE87040184700BF00E100E02DE9F047EF
:10702000044616460D4690F82480FFF76AF994F856
:107030002A2003469AB1FFF76AF994F82D90FFF7DA
:1070400059F907460121484600F020FC3846FFF771
:1070500055F9FFF756F90022034684F82A2018460E
:10706000FFF755F92E44B8F1000F23D1AE4205D1F8
:10707000204663680121BDE8F047184794F82630A0
:10708000002BF3D02046236815F8011B98470028F1
:10709000ECD0BDE8F08794F826305BB12B780A2B52
:1070A00003D10D212046236898472046236815F810
:1070B000011B9847AE42EED1DAE72DE9F7434FF0D6
:1070C0000009044690461E46C3F800904F1E3368E0
:1070D000434505D2FFF715F9A269C2B9FFF717F9C1
:1070E00094F827305BB91123012220460DF10701E6
:1070F0008DF80730FFF792FF012384F827303368BB
:10710000002B0CBF1B20002003B0BDE8F083E16919
:1071100022698A5C07F8012F2569226A01359542A8
:1071200008BF4D46A2692561013AA261FFF7EFF859
:10713000A36820469847336801333360C7E708B532
:10714000FFF76CFF002008BDF8B51F4653680646E0
:107150000C461546002B5BD09368002B5AD030228A
:107160000021204623F021FC6B682B4AE361AB68C9
:10717000204623622B7B84F82430AB7B276084F885
:10718000253040F20113E384069B00276360079BD0
:10719000A360089BE3602B7884F828306B7884F830
:1071A00029301E4B346073601D4BB3601D4B33613F
:1071B0001D4B73611D4BF3601D4B3362012384F83B
:1071C0002E30B2611B4AF2619DF8282084F82D20F0
:1071D0009DF8242084F82A3084F82C20697B84F8D8
:1071E0002B70FFF7AFFE95F90100FFF79BFE95F9B5
:1071F0000100FFF789FE95F90000FFF793FE95F96E
:107200000000FFF781FE3046FFF7CEFD3846F8BD9F
:107210002220FCE72120FAE7456F00003F710000C3
:10722000BB700000F56E0000FB6E0000956F000063
:10723000D96E0000016F000010B50446FFF761F839
:10724000A269236A9A4203D2FFF761F8012010BDB8
:10725000FFF75DF80020FAE737B504460D4600E079
:1072600000BFFFF74EF894F8253002466BB1132D9E
:1072700007D1002384F8263003B0BDE83040FFF783
:1072800046B8112D01D10123F4E76369E169104685
:10729000CD54A16963690131A161216A01338B4237
:1072A000636104BF00236361FFF731F8042384F8AE
:1072B0002E3094F825307BB1A269236A9A420BD113
:1072C0001323012220460DF107018DF80730FFF747
:1072D000A5FE002384F8273003B030BD90F82A3093
:1072E00073B5044603F0FF01A3B9436801919847C1
:1072F000012384F82A3094F82D60FEF7FBFF054641
:107300000199304600F0C2FA2846FEF7F7FF022343
:1073100084F82E3002B070BD026BD36C43F00403CE
:10732000D364704710B50446026B93695906FCD5C7
:10733000002394F836101A4694F83500FFF788F8C1
:10734000002394F838101A4694F83700FFF780F8B5
:1073500094F83D30DA0707D5002394F83A101A461E
:1073600094F83900FFF774F894F83D309B0707D57F
:10737000002394F83C101A4694F83B00FFF768F895
:10738000206B0021FFF7E2F9002010BD08B5006B6B
:10739000FFF7AAFA002008BD036BDA6C19B142F0BE
:1073A0000102DA64704722F00102DA64012203F577
:1073B00000539A64704700002DE9F0414FF0010836
:1073C0001C46574B86B00293564B0C9D0193564B6F
:1073D000174600930A46CDE903882946534BFFF729
:1073E000B3FE0646002875D1236804222B63237957
:1073F00085F83430A17985F83610607985F8350044
:10740000237A85F83830E37985F83730A37A85F820
:107410003A30637A85F83930237B85F83C30E37A5B
:1074200085F83B304346FFF713F843460222217AA2
:10743000E079FFF70DF83E7039462068FFF7CCF988
:107440001421627B3A4B03EB4210C0F8AC1594F860
:1074500006C061792E3203EB421341EA0C415960B8
:10746000227AE37943EA0243C0F8BC3585F83D60EF
